{
  "_format": "hh-sol-artifact-1",
  "contractName": "COTIVotingContract",
  "sourceName": "contracts/COTIVotingContract.sol",
  "abi": [
    {
      "inputs": [],
      "stateMutability": "nonpayable",
      "type": "constructor"
    },
    {
      "inputs": [],
      "name": "CannotCloseElectionWithoutVoters",
      "type": "error"
    },
    {
      "inputs": [],
      "name": "ElectionClosed",
      "type": "error"
    },
    {
      "inputs": [],
      "name": "ElectionStillOpen",
      "type": "error"
    },
    {
      "inputs": [],
      "name": "EmptyVoterName",
      "type": "error"
    },
    {
      "inputs": [
        {
          "internalType": "uint8",
          "name": "option",
          "type": "uint8"
        }
      ],
      "name": "InvalidVoteOption",
      "type": "error"
    },
    {
      "inputs": [],
      "name": "InvalidVoterAddress",
      "type": "error"
    },
    {
      "inputs": [
        {
          "internalType": "address",
          "name": "voter",
          "type": "address"
        }
      ],
      "name": "InvalidVoterState",
      "type": "error"
    },
    {
      "inputs": [],
      "name": "NoVotersRegistered",
      "type": "error"
    },
    {
      "inputs": [],
      "name": "NoVotesCast",
      "type": "error"
    },
    {
      "inputs": [],
      "name": "OnlyOwnerAllowed",
      "type": "error"
    },
    {
      "inputs": [
        {
          "internalType": "address",
          "name": "voter",
          "type": "address"
        }
      ],
      "name": "VoterAlreadyRegistered",
      "type": "error"
    },
    {
      "inputs": [
        {
          "internalType": "address",
          "name": "voter",
          "type": "address"
        }
      ],
      "name": "VoterHasNotVoted",
      "type": "error"
    },
    {
      "inputs": [
        {
          "internalType": "address",
          "name": "voter",
          "type": "address"
        }
      ],
      "name": "VoterNotRegistered",
      "type": "error"
    },
    {
      "anonymous": false,
      "inputs": [
        {
          "indexed": false,
          "internalType": "bool",
          "name": "isOpen",
          "type": "bool"
        }
      ],
      "name": "ElectionStateChanged",
      "type": "event"
    },
    {
      "anonymous": false,
      "inputs": [
        {
          "indexed": true,
          "internalType": "uint8",
          "name": "optionId",
          "type": "uint8"
        },
        {
          "indexed": false,
          "internalType": "string",
          "name": "optionLabel",
          "type": "string"
        },
        {
          "indexed": false,
          "internalType": "ctUint64",
          "name": "encryptedValue",
          "type": "uint256"
        }
      ],
      "name": "EncryptedResultForOwner",
      "type": "event"
    },
    {
      "anonymous": false,
      "inputs": [
        {
          "indexed": true,
          "internalType": "address",
          "name": "voter",
          "type": "address"
        }
      ],
      "name": "OwnerAuthorized",
      "type": "event"
    },
    {
      "anonymous": false,
      "inputs": [
        {
          "indexed": true,
          "internalType": "uint8",
          "name": "optionId",
          "type": "uint8"
        },
        {
          "indexed": false,
          "internalType": "string",
          "name": "optionLabel",
          "type": "string"
        },
        {
          "indexed": false,
          "internalType": "uint64",
          "name": "voteCount",
          "type": "uint64"
        }
      ],
      "name": "ResultsDecrypted",
      "type": "event"
    },
    {
      "anonymous": false,
      "inputs": [
        {
          "indexed": true,
          "internalType": "address",
          "name": "voter",
          "type": "address"
        }
      ],
      "name": "VoteCast",
      "type": "event"
    },
    {
      "anonymous": false,
      "inputs": [
        {
          "indexed": true,
          "internalType": "address",
          "name": "voter",
          "type": "address"
        }
      ],
      "name": "VoteChanged",
      "type": "event"
    },
    {
      "anonymous": false,
      "inputs": [
        {
          "indexed": true,
          "internalType": "address",
          "name": "voterId",
          "type": "address"
        },
        {
          "indexed": false,
          "internalType": "string",
          "name": "name",
          "type": "string"
        }
      ],
      "name": "VoterRegistered",
      "type": "event"
    },
    {
      "inputs": [
        {
          "internalType": "string",
          "name": "name",
          "type": "string"
        },
        {
          "internalType": "address",
          "name": "voterId",
          "type": "address"
        }
      ],
      "name": "addVoter",
      "outputs": [],
      "stateMutability": "nonpayable",
      "type": "function"
    },
    {
      "inputs": [],
      "name": "aggregateVotes",
      "outputs": [],
      "stateMutability": "nonpayable",
      "type": "function"
    },
    {
      "inputs": [],
      "name": "authorizeOwnerToReadVote",
      "outputs": [],
      "stateMutability": "nonpayable",
      "type": "function"
    },
    {
      "inputs": [
        {
          "components": [
            {
              "internalType": "ctUint8",
              "name": "ciphertext",
              "type": "uint256"
            },
            {
              "internalType": "bytes",
              "name": "signature",
              "type": "bytes"
            }
          ],
          "internalType": "struct itUint8",
          "name": "encryptedVote",
          "type": "tuple"
        }
      ],
      "name": "castVote",
      "outputs": [],
      "stateMutability": "nonpayable",
      "type": "function"
    },
    {
      "inputs": [
        {
          "components": [
            {
              "internalType": "ctUint8",
              "name": "ciphertext",
              "type": "uint256"
            },
            {
              "internalType": "bytes",
              "name": "signature",
              "type": "bytes"
            }
          ],
          "internalType": "struct itUint8",
          "name": "newEncryptedVote",
          "type": "tuple"
        }
      ],
      "name": "changeVote",
      "outputs": [],
      "stateMutability": "nonpayable",
      "type": "function"
    },
    {
      "inputs": [],
      "name": "electionOpened",
      "outputs": [
        {
          "internalType": "bool",
          "name": "",
          "type": "bool"
        }
      ],
      "stateMutability": "view",
      "type": "function"
    },
    {
      "inputs": [],
      "name": "getElectionStatus",
      "outputs": [
        {
          "internalType": "bool",
          "name": "isOpen",
          "type": "bool"
        },
        {
          "internalType": "uint256",
          "name": "voterCount",
          "type": "uint256"
        },
        {
          "internalType": "address",
          "name": "electionOwner",
          "type": "address"
        }
      ],
      "stateMutability": "view",
      "type": "function"
    },
    {
      "inputs": [
        {
          "internalType": "uint8",
          "name": "optionId",
          "type": "uint8"
        }
      ],
      "name": "getEncryptedResult",
      "outputs": [
        {
          "internalType": "ctUint64",
          "name": "",
          "type": "uint256"
        }
      ],
      "stateMutability": "view",
      "type": "function"
    },
    {
      "inputs": [],
      "name": "getMyVote",
      "outputs": [
        {
          "internalType": "ctUint8",
          "name": "",
          "type": "uint256"
        }
      ],
      "stateMutability": "nonpayable",
      "type": "function"
    },
    {
      "inputs": [],
      "name": "getRegisteredVoterCount",
      "outputs": [
        {
          "internalType": "uint256",
          "name": "",
          "type": "uint256"
        }
      ],
      "stateMutability": "view",
      "type": "function"
    },
    {
      "inputs": [],
      "name": "getResults",
      "outputs": [
        {
          "components": [
            {
              "internalType": "uint8",
              "name": "optionId",
              "type": "uint8"
            },
            {
              "internalType": "string",
              "name": "optionLabel",
              "type": "string"
            },
            {
              "internalType": "uint64",
              "name": "voteCount",
              "type": "uint64"
            }
          ],
          "internalType": "struct COTIVotingContract.VoteResult[4]",
          "name": "",
          "type": "tuple[4]"
        }
      ],
      "stateMutability": "nonpayable",
      "type": "function"
    },
    {
      "inputs": [],
      "name": "getVoterAddresses",
      "outputs": [
        {
          "internalType": "address[]",
          "name": "",
          "type": "address[]"
        }
      ],
      "stateMutability": "view",
      "type": "function"
    },
    {
      "inputs": [
        {
          "internalType": "address",
          "name": "voterId",
          "type": "address"
        }
      ],
      "name": "getVoterInfo",
      "outputs": [
        {
          "internalType": "string",
          "name": "name",
          "type": "string"
        },
        {
          "internalType": "bool",
          "name": "isRegistered",
          "type": "bool"
        }
      ],
      "stateMutability": "view",
      "type": "function"
    },
    {
      "inputs": [],
      "name": "getVotingOptions",
      "outputs": [
        {
          "components": [
            {
              "internalType": "uint8",
              "name": "id",
              "type": "uint8"
            },
            {
              "internalType": "string",
              "name": "label",
              "type": "string"
            }
          ],
          "internalType": "struct COTIVotingContract.VoteOption[4]",
          "name": "",
          "type": "tuple[4]"
        }
      ],
      "stateMutability": "view",
      "type": "function"
    },
    {
      "inputs": [],
      "name": "getVotingQuestion",
      "outputs": [
        {
          "internalType": "string",
          "name": "",
          "type": "string"
        }
      ],
      "stateMutability": "pure",
      "type": "function"
    },
    {
      "inputs": [
        {
          "internalType": "address",
          "name": "voterId",
          "type": "address"
        }
      ],
      "name": "isVoterRegistered",
      "outputs": [
        {
          "internalType": "bool",
          "name": "",
          "type": "bool"
        }
      ],
      "stateMutability": "view",
      "type": "function"
    },
    {
      "inputs": [],
      "name": "toggleElection",
      "outputs": [],
      "stateMutability": "nonpayable",
      "type": "function"
    },
    {
      "inputs": [
        {
          "internalType": "uint8",
          "name": "optionId",
          "type": "uint8"
        }
      ],
      "name": "validateVoteOption",
      "outputs": [
        {
          "internalType": "bool",
          "name": "",
          "type": "bool"
        }
      ],
      "stateMutability": "pure",
      "type": "function"
    },
    {
      "inputs": [],
      "name": "viewResults",
      "outputs": [
        {
          "components": [
            {
              "internalType": "uint8",
              "name": "optionId",
              "type": "uint8"
            },
            {
              "internalType": "string",
              "name": "optionLabel",
              "type": "string"
            },
            {
              "internalType": "uint64",
              "name": "voteCount",
              "type": "uint64"
            }
          ],
          "internalType": "struct COTIVotingContract.VoteResult[4]",
          "name": "",
          "type": "tuple[4]"
        }
      ],
      "stateMutability": "view",
      "type": "function"
    },
    {
      "inputs": [
        {
          "internalType": "uint256",
          "name": "",
          "type": "uint256"
        }
      ],
      "name": "voterAddresses",
      "outputs": [
        {
          "internalType": "address",
          "name": "",
          "type": "address"
        }
      ],
      "stateMutability": "view",
      "type": "function"
    },
    {
      "inputs": [
        {
          "internalType": "address",
          "name": "",
          "type": "address"
        }
      ],
      "name": "voters",
      "outputs": [
        {
          "internalType": "string",
          "name": "name",
          "type": "string"
        },
        {
          "internalType": "address",
          "name": "voterId",
          "type": "address"
        },
        {
          "internalType": "ctUint8",
          "name": "encryptedVote",
          "type": "uint256"
        },
        {
          "internalType": "bool",
          "name": "isRegistered",
          "type": "bool"
        },
        {
          "internalType": "bool",
          "name": "hasVoted",
          "type": "bool"
        },
        {
          "internalType": "bool",
          "name": "hasAuthorizedOwner",
          "type": "bool"
        }
      ],
      "stateMutability": "view",
      "type": "function"
    },
    {
      "inputs": [
        {
          "internalType": "uint256",
          "name": "",
          "type": "uint256"
        }
      ],
      "name": "votingOptions",
      "outputs": [
        {
          "internalType": "uint8",
          "name": "id",
          "type": "uint8"
        },
        {
          "internalType": "string",
          "name": "label",
          "type": "string"
        }
      ],
      "stateMutability": "view",
      "type": "function"
    }
  ],
  "bytecode": "0x60806040523480156200001157600080fd5b50600a805460ff19610100330281166001600160a81b03199092169190911760019081179092556040805180820182528381528151808301909252600982526843686f636f6c61746560b81b602080840191909152810182905280516000805460ff9092169190941617835592906200008b90826200024b565b505060408051808201825260028082528251808401909352600983526852617370626572727960b81b60208085019190915282018390528151815460ff191660ff90911617815590925090600390620000e590826200024b565b505060408051808201825260038152815180830190925260088252670a6c2dcc8eed2c6d60c31b602080840191909152810182905280516004805460ff191660ff909216919091178155909250906005906200014290826200024b565b505060408051808201825260048152815180830190925260058252644d616e676f60d81b602080840191909152810182905280516006805460ff191660ff909216919091178155909250906007906200019c90826200024b565b5090505062000317565b634e487b7160e01b600052604160045260246000fd5b600181811c90821680620001d157607f821691505b602082108103620001f257634e487b7160e01b600052602260045260246000fd5b50919050565b601f8211156200024657600081815260208120601f850160051c81016020861015620002215750805b601f850160051c820191505b8181101562000242578281556001016200022d565b5050505b505050565b81516001600160401b03811115620002675762000267620001a6565b6200027f81620002788454620001bc565b84620001f8565b602080601f831160018114620002b757600084156200029e5750858301515b600019600386901b1c1916600185901b17855562000242565b600085815260208120601f198616915b82811015620002e857888601518255948401946001909101908401620002c7565b5085821015620003075787850151600019600388901b60f8161c191681555b5050505050600190811b01905550565b6122cc80620003276000396000f3fe608060405234801561001057600080fd5b50600436106101425760003560e01c80639ed1f255116100b8578063d60debb91161007c578063d60debb9146102e8578063d7090322146102f0578063dd0e2373146102f8578063dff67f6b14610323578063eb2119db14610344578063fa0f82a21461037357600080fd5b80639ed1f25514610285578063a3ec138d146102a6578063a980ff0e146102cb578063d4ff9193146102d3578063d55ab095146102e057600080fd5b80635607395b1161010a5780635607395b146101de57806364fc75e0146101f357806368cdfda51461021657806383859cf714610255578063857a5ed01461026a5780638cb647d31461027d57600080fd5b80630a16e30b14610147578063122902a6146101655780632b8c2504146101a45780633ebfce6f146101b65780634717f97c146101c9575b600080fd5b61014f610386565b60405161015c9190611c16565b60405180910390f35b600a5460095460ff82169161010090046001600160a01b031660408051931515845260208401929092526001600160a01b03169082015260600161015c565b6009545b60405190815260200161015c565b6101a86101c4366004611c63565b6103e8565b6101d16104e4565b60405161015c9190611ccc565b6101f16101ec366004611dea565b610697565b005b610206610201366004611c63565b61091b565b604051901515815260200161015c565b604080518082018252601b81527f5768617420697320796f7572206661766f7269746520666f6f643f00000000006020820152905161015c9190611e4c565b61025d61093b565b60405161015c9190611e5f565b6101f1610278366004611eb7565b610a23565b6101a8610b4b565b610298610293366004611ef2565b610beb565b60405161015c929190611f0d565b6102b96102b4366004611ef2565b610d15565b60405161015c96959493929190611f31565b6101f1610de6565b600a546102069060ff1681565b6101d1610e14565b6101f1610fc0565b6101f16110a7565b61030b610306366004611f7a565b61125a565b6040516001600160a01b03909116815260200161015c565b610336610331366004611f7a565b611284565b60405161015c929190611f93565b610206610352366004611ef2565b6001600160a01b031660009081526008602052604090206003015460ff1690565b6101f1610381366004611eb7565b611334565b606060098054806020026020016040519081016040528092919081815260200182805480156103de57602002820191906000526020600020905b81546001600160a01b031681526001909101906020018083116103c0575b5050505050905090565b600a5460009060ff161561040f576040516373cbb3a360e11b815260040160405180910390fd5b600a5461010090046001600160a01b0316331461043f57604051630e2f7eff60e31b815260040160405180910390fd5b60018260ff1610158015610457575060048260ff1611155b61049c5760405162461bcd60e51b8152602060048201526011602482015270125b9d985b1a59081bdc1d1a5bdb881251607a1b60448201526064015b60405180910390fd5b60155460ff166104be5760405162461bcd60e51b815260040161049390611faf565b600b8260ff16600581106104d4576104d461200d565b600202016001015490505b919050565b6104ec611b86565b600a5460ff1615610510576040516373cbb3a360e11b815260040160405180910390fd5b600a5461010090046001600160a01b0316331461054057604051630e2f7eff60e31b815260040160405180910390fd5b6009546000036105635760405163a30aca8f60e01b815260040160405180910390fd5b61056b611449565b610573611b86565b60005b60048160ff16101561069157604051806060016040528060008360ff16600481106105a3576105a361200d565b600202015460ff90811682526020909101906000908416600481106105ca576105ca61200d565b6002020160010180546105dc90612023565b80601f016020809104026020016040519081016040528092919081815260200182805461060890612023565b80156106555780601f1061062a57610100808354040283529160200191610655565b820191906000526020600020905b81548152906001019060200180831161063857829003601f168201915b505050918352505060006020909101528260ff83166004811061067a5761067a61200d565b60200201528061068981612073565b915050610576565b50905090565b600a5461010090046001600160a01b031633146106c757604051630e2f7eff60e31b815260040160405180910390fd5b6001600160a01b03811660009081526008602052604090206003015460ff161561070f5760405163c501dbfd60e01b81526001600160a01b0382166004820152602401610493565b6001600160a01b038116610736576040516320798b3f60e21b815260040160405180910390fd5b815160000361075857604051635c55fdb360e01b815260040160405180910390fd5b816000805b82518110156107ad578281815181106107785761077861200d565b6020910101516001600160f81b031916600160fd1b1461079b57600191506107ad565b806107a581612092565b91505061075d565b50806107cc57604051635c55fdb360e01b815260040160405180910390fd5b6040805160c0810182528581526001600160a01b03851660208083018290526000838501819052600160608501526080840181905260a08401819052918252600890529182208151819061082090826120fa565b506020820151600180830180546001600160a01b039384166001600160a01b0319918216179091556040808601516002860155606086015160039095018054608088015160a0909801511515620100000262ff0000199815156101000261ff00199815159890981661ffff19909216919091179690961796909616949094179094556009805491820181556000527f6e1540171b6c0c960b71a7020d9f60077f6af931a8bbf590da0223dacf75c7af018054918816919093168117909255517fffeb7702be7dcd8fee170d954b70afb9a7c78f7f5cff232d037e7b9d8243356a9061090c908890611e4c565b60405180910390a25050505050565b600060018260ff1610158015610935575060048260ff1611155b92915050565b610943611bdc565b60408051608081019091526000600481835b82821015610a1a5760408051808201909152600283028501805460ff16825260018101805460208401919061098990612023565b80601f01602080910402602001604051908101604052809291908181526020018280546109b590612023565b8015610a025780601f106109d757610100808354040283529160200191610a02565b820191906000526020600020905b8154815290600101906020018083116109e557829003601f168201915b50505050508152505081526020019060010190610955565b50505050905090565b3360009081526008602052604090206003015460ff16610a5857604051639d8ab59d60e01b8152336004820152602401610493565b600a5460ff16610a7b5760405163a549b9ad60e01b815260040160405180910390fd5b6000610a8e610a89836121ba565b6117db565b90506000610a9b82611852565b33600090815260086020526040902060028101829055600301805461ff001916610100179081905590915062010000900460ff16610b1b5733600081815260086020526040808220600301805462ff0000191662010000179055517f088504cc656f0bf9393d86c793d2e71f5fdbb2736d7bc12cfd960306ac1ceddf9190a25b60405133907fb87a61d78bd15221c59b983f6ef032fbde0631e66bfe18d1421fe5a73c16741d90600090a2505050565b3360009081526008602052604081206003015460ff16610b8057604051639d8ab59d60e01b8152336004820152602401610493565b33600090815260086020526040902060030154610100900460ff16610bba5760405163f2f1626360e01b8152336004820152602401610493565b33600090815260086020526040812060020154610bd690611894565b90506000610be482336118a4565b9250505090565b606060008060086000856001600160a01b03166001600160a01b031681526020019081526020016000206040518060c0016040529081600082018054610c3090612023565b80601f0160208091040260200160405190810160405280929190818152602001828054610c5c90612023565b8015610ca95780601f10610c7e57610100808354040283529160200191610ca9565b820191906000526020600020905b815481529060010190602001808311610c8c57829003601f168201915b505050918352505060018201546001600160a01b031660208201526002820154604082015260039091015460ff808216151560608085019190915261010083048216151560808501526201000090920416151560a0909201919091528151910151909590945092505050565b600860205260009081526040902080548190610d3090612023565b80601f0160208091040260200160405190810160405280929190818152602001828054610d5c90612023565b8015610da95780601f10610d7e57610100808354040283529160200191610da9565b820191906000526020600020905b815481529060010190602001808311610d8c57829003601f168201915b5050506001840154600285015460039095015493946001600160a01b039091169390925060ff808216925061010082048116916201000090041686565b600a5460ff1615610e0a576040516373cbb3a360e11b815260040160405180910390fd5b610e12611449565b565b610e1c611b86565b600a5460ff1615610e40576040516373cbb3a360e11b815260040160405180910390fd5b600954600003610e635760405163a30aca8f60e01b815260040160405180910390fd5b60155460ff16610e855760405162461bcd60e51b815260040161049390611faf565b610e8d611b86565b60005b60048160ff161015610691576000808260ff1660048110610eb357610eb361200d565b600202015460ff90811691506000908190841660048110610ed657610ed661200d565b600202016001018054610ee890612023565b80601f0160208091040260200160405190810160405280929190818152602001828054610f1490612023565b8015610f615780601f10610f3657610100808354040283529160200191610f61565b820191906000526020600020905b815481529060010190602001808311610f4457829003601f168201915b5050505050905060405180606001604052808360ff168152602001828152602001600067ffffffffffffffff16815250848460ff1660048110610fa657610fa661200d565b602002015250819050610fb881612073565b915050610e90565b3360009081526008602052604090206003015460ff16610ff557604051639d8ab59d60e01b8152336004820152602401610493565b3360009081526008602052604090206003015462010000900460ff161561105e5760405162461bcd60e51b815260206004820152601860248201527f4f776e657220616c726561647920617574686f72697a656400000000000000006044820152606401610493565b33600081815260086020526040808220600301805462ff0000191662010000179055517f088504cc656f0bf9393d86c793d2e71f5fdbb2736d7bc12cfd960306ac1ceddf9190a2565b600a5461010090046001600160a01b031633146110d757604051630e2f7eff60e31b815260040160405180910390fd5b600a5460ff1680156110e95750600954155b1561110a57604051600162fbea0960e01b0319815260040160405180910390fd5b600a805460ff19811660ff91821615908117909255161561121c576015805461ffff1916905560005b600954811015611193576000600982815481106111525761115261200d565b60009182526020808320909101546001600160a01b031682526008905260409020600301805462ffff0019169055508061118b81612092565b915050611133565b5060015b60048160ff161161121a5760006111ae6000611954565b905060006111d182600a60019054906101000a90046001600160a01b031661198f565b905080600b8460ff16600581106111ea576111ea61200d565b6002020160008201518160000155602082015181600101559050505050808061121290612073565b915050611197565b505b600a5460405160ff909116151581527f58d99f1d0dfdad6caf2b8823434b82787ace21d736432d69520958d8428c59989060200160405180910390a1565b6009818154811061126a57600080fd5b6000918252602090912001546001600160a01b0316905081565b6000816004811061129457600080fd5b60020201805460018201805460ff9092169350906112b190612023565b80601f01602080910402602001604051908101604052809291908181526020018280546112dd90612023565b801561132a5780601f106112ff5761010080835404028352916020019161132a565b820191906000526020600020905b81548152906001019060200180831161130d57829003601f168201915b5050505050905082565b3360009081526008602052604090206003015460ff1661136957604051639d8ab59d60e01b8152336004820152602401610493565b600a5460ff1661138c5760405163a549b9ad60e01b815260040160405180910390fd5b600061139a610a89836121ba565b905060006113a782611852565b336000908152600860205260409020600281018290556003015490915062010000900460ff166114195733600081815260086020526040808220600301805462ff0000191662010000179055517f088504cc656f0bf9393d86c793d2e71f5fdbb2736d7bc12cfd960306ac1ceddf9190a25b60405133907fbcc6791025780c5d3b88b0f64e6493105037fe9c3d97a963f14d4d3479e75a6b90600090a2505050565b60095460000361146c5760405163a30aca8f60e01b815260040160405180910390fd5b601554610100900460ff161561147e57565b6000805b6009548110156114f45760086000600983815481106114a3576114a361200d565b60009182526020808320909101546001600160a01b0316835282019290925260400190206003015460ff61010090910416156114e257600191506114f4565b806114ec81612092565b915050611482565b50806115135760405163354ba2d560e01b815260040160405180910390fd5b60015b60048160ff161161159957600061152d6000611954565b9050600061155082600a60019054906101000a90046001600160a01b031661198f565b905080600b8460ff16600581106115695761156961200d565b6002020160008201518160000155602082015181600101559050505050808061159190612073565b915050611516565b506015805460ff1916600117905560005b6009548110156117c8576000600982815481106115c9576115c961200d565b60009182526020808320909101546001600160a01b03168083526008909152604090912060038101549192509060ff166116215760405163448c8c0560e01b81526001600160a01b0383166004820152602401610493565b6003810154610100900460ff166116395750506117b6565b600381015462010000900460ff166116a75760405162461bcd60e51b815260206004820152602b60248201527f566f74657220686173206e6f7420617574686f72697a6564206f776e6572207460448201526a6f207265616420766f746560a81b6064820152608401610493565b60006116b68260020154611894565b905060015b60048160ff16116117b15760006116d1826119c3565b905060006116df84836119f7565b905060006116ed6001611954565b905060006116fb6000611954565b9050600061170a848385611a47565b90506000611731600b8860ff16600581106117275761172761200d565b6002020154611ae4565b9050600061173f8284611af4565b9050600061176282600a60019054906101000a90046001600160a01b031661198f565b905080600b8a60ff166005811061177b5761177b61200d565b600202016000820151816000015560208201518160010155905050505050505050505080806117a990612073565b9150506116bb565b505050505b806117c081612092565b9150506115aa565b50506015805461ff001916610100179055565b80516020820151604051630e4f36e160e41b815260009260649263e4f36e109261180f92600160f81b92909160040161224f565b6020604051808303816000875af115801561182e573d6000803e3d6000fd5b505050506040513d601f19601f82011682018060405250810190610935919061227d565b6000606463c50c9c0260015b60f81b846040518363ffffffff1660e01b815260040161180f9291906001600160f81b0319929092168252602082015260400190565b6000606463d2c135e5600161185e565b60006064633c6f0e6860015b60f81b85856040516020016118dd919060609190911b6bffffffffffffffffffffffff1916815260140190565b6040516020818303038152906040526040518463ffffffff1660e01b815260040161190a9392919061224f565b6020604051808303816000875af1158015611929573d6000803e3d6000fd5b505050506040513d601f19601f8201168201806040525081019061194d919061227d565b9392505050565b6040516306cdb05b60e51b8152600160fa1b600482015267ffffffffffffffff8216602482015260009060649063d9b60b609060440161180f565b60408051808201909152600080825260208201526119ac83611b09565b81526119b88383611b19565b602082015292915050565b6040516306cdb05b60e51b8152600160f81b600482015260ff8216602482015260009060649063d9b60b609060440161180f565b60006064637c12a1eb611a0c60018085611b29565b6040516001600160e01b031960e084901b1681526001600160e81b03199091166004820152602481018690526044810185905260640161190a565b600060646320cc408d611a5c60048085611b29565b6040516001600160e01b031960e084901b1681526001600160e81b031990911660048201526024810187905260448101869052606481018590526084016020604051808303816000875af1158015611ab8573d6000803e3d6000fd5b505050506040513d601f19601f82011682018060405250810190611adc919061227d565b949350505050565b6000606463d2c135e5600461185e565b60006064638c5d0150611a0c60048085611b29565b6000606463c50c9c02600461185e565b60006064633c6f0e6860046118b0565b6000816002811115611b3d57611b3d612239565b60ff166008846004811115611b5457611b54612239565b61ffff16901b61ffff166010866004811115611b7257611b72612239565b62ffffff16901b171760e81b949350505050565b60405180608001604052806004905b611bc66040518060600160405280600060ff16815260200160608152602001600067ffffffffffffffff1681525090565b815260200190600190039081611b955790505090565b60405180608001604052806004905b604080518082019091526000815260606020820152815260200190600190039081611beb5790505090565b6020808252825182820181905260009190848201906040850190845b81811015611c575783516001600160a01b031683529284019291840191600101611c32565b50909695505050505050565b600060208284031215611c7557600080fd5b813560ff8116811461194d57600080fd5b6000815180845260005b81811015611cac57602081850181015186830182015201611c90565b506000602082860101526020601f19601f83011685010191505092915050565b602080825260009060a0830183820185845b6004811015611d3b57601f198785030183528151606060ff8251168652868201518188880152611d1082880182611c86565b60409384015167ffffffffffffffff1697909301969096525093509184019190840190600101611cde565b50919695505050505050565b634e487b7160e01b600052604160045260246000fd5b600067ffffffffffffffff80841115611d7857611d78611d47565b604051601f8501601f19908116603f01168101908282118183101715611da057611da0611d47565b81604052809350858152868686011115611db957600080fd5b858560208301376000602087830101525050509392505050565b80356001600160a01b03811681146104df57600080fd5b60008060408385031215611dfd57600080fd5b823567ffffffffffffffff811115611e1457600080fd5b8301601f81018513611e2557600080fd5b611e3485823560208401611d5d565b925050611e4360208401611dd3565b90509250929050565b60208152600061194d6020830184611c86565b602080825260009060a0830183820185845b6004811015611d3b57868403601f190183528151805160ff1685528501516040868601819052611ea381870183611c86565b955050509184019190840190600101611e71565b600060208284031215611ec957600080fd5b813567ffffffffffffffff811115611ee057600080fd5b82016040818503121561194d57600080fd5b600060208284031215611f0457600080fd5b61194d82611dd3565b604081526000611f206040830185611c86565b905082151560208301529392505050565b60c081526000611f4460c0830189611c86565b6001600160a01b03979097166020830152506040810194909452911515606084015215156080830152151560a090910152919050565b600060208284031215611f8c57600080fd5b5035919050565b60ff83168152604060208201526000611adc6040830184611c86565b602080825260409082018190527f566f7465732068617665206e6f74206265656e20616767726567617465642079908201527f65742e2043616c6c20616767726567617465566f74657328292066697273742e606082015260800190565b634e487b7160e01b600052603260045260246000fd5b600181811c9082168061203757607f821691505b60208210810361205757634e487b7160e01b600052602260045260246000fd5b50919050565b634e487b7160e01b600052601160045260246000fd5b600060ff821660ff81036120895761208961205d565b60010192915050565b6000600182016120a4576120a461205d565b5060010190565b601f8211156120f557600081815260208120601f850160051c810160208610156120d25750805b601f850160051c820191505b818110156120f1578281556001016120de565b5050505b505050565b815167ffffffffffffffff81111561211457612114611d47565b612128816121228454612023565b846120ab565b602080601f83116001811461215d57600084156121455750858301515b600019600386901b1c1916600185901b1785556120f1565b600085815260208120601f198616915b8281101561218c5788860151825594840194600190910190840161216d565b50858210156121aa5787850151600019600388901b60f8161c191681555b5050505050600190811b01905550565b6000604082360312156121cc57600080fd5b6040516040810167ffffffffffffffff82821081831117156121f0576121f0611d47565b8160405284358352602085013591508082111561220c57600080fd5b50830136601f82011261221e57600080fd5b61222d36823560208401611d5d565b60208301525092915050565b634e487b7160e01b600052602160045260246000fd5b60ff60f81b841681528260208201526060604082015260006122746060830184611c86565b95945050505050565b60006020828403121561228f57600080fd5b505191905056fea264697066735822122060d8ce62010d3fcd95a8cfb7ac10b42a59f47e3c60dfcad3744858ebd79f2c2f64736f6c63430008130033",
  "linkReferences": {},
  "deployedLinkReferences": {}
}