{
  "_format": "hh-sol-artifact-1",
  "contractName": "COTIVotingContract",
  "sourceName": "contracts/COTIVotingContract.sol",
  "abi": [
    {
      "inputs": [],
      "stateMutability": "nonpayable",
      "type": "constructor"
    },
    {
      "inputs": [],
      "name": "CannotCloseElectionWithoutVoters",
      "type": "error"
    },
    {
      "inputs": [],
      "name": "ElectionClosed",
      "type": "error"
    },
    {
      "inputs": [],
      "name": "ElectionStillOpen",
      "type": "error"
    },
    {
      "inputs": [],
      "name": "EmptyVoterName",
      "type": "error"
    },
    {
      "inputs": [
        {
          "internalType": "uint8",
          "name": "option",
          "type": "uint8"
        }
      ],
      "name": "InvalidVoteOption",
      "type": "error"
    },
    {
      "inputs": [],
      "name": "InvalidVoterAddress",
      "type": "error"
    },
    {
      "inputs": [
        {
          "internalType": "address",
          "name": "voter",
          "type": "address"
        }
      ],
      "name": "InvalidVoterState",
      "type": "error"
    },
    {
      "inputs": [],
      "name": "NoVotersRegistered",
      "type": "error"
    },
    {
      "inputs": [],
      "name": "NoVotesCast",
      "type": "error"
    },
    {
      "inputs": [],
      "name": "OnlyOwnerAllowed",
      "type": "error"
    },
    {
      "inputs": [
        {
          "internalType": "address",
          "name": "voter",
          "type": "address"
        }
      ],
      "name": "VoterAlreadyRegistered",
      "type": "error"
    },
    {
      "inputs": [
        {
          "internalType": "address",
          "name": "voter",
          "type": "address"
        }
      ],
      "name": "VoterNotRegistered",
      "type": "error"
    },
    {
      "anonymous": false,
      "inputs": [
        {
          "indexed": false,
          "internalType": "bool",
          "name": "isOpen",
          "type": "bool"
        }
      ],
      "name": "ElectionStateChanged",
      "type": "event"
    },
    {
      "anonymous": false,
      "inputs": [
        {
          "indexed": true,
          "internalType": "address",
          "name": "voter",
          "type": "address"
        }
      ],
      "name": "VoteCast",
      "type": "event"
    },
    {
      "anonymous": false,
      "inputs": [
        {
          "indexed": true,
          "internalType": "address",
          "name": "voter",
          "type": "address"
        }
      ],
      "name": "VoteChanged",
      "type": "event"
    },
    {
      "anonymous": false,
      "inputs": [
        {
          "indexed": true,
          "internalType": "address",
          "name": "voterId",
          "type": "address"
        },
        {
          "indexed": false,
          "internalType": "string",
          "name": "name",
          "type": "string"
        }
      ],
      "name": "VoterRegistered",
      "type": "event"
    },
    {
      "inputs": [
        {
          "internalType": "string",
          "name": "name",
          "type": "string"
        },
        {
          "internalType": "address",
          "name": "voterId",
          "type": "address"
        }
      ],
      "name": "addVoter",
      "outputs": [],
      "stateMutability": "nonpayable",
      "type": "function"
    },
    {
      "inputs": [
        {
          "components": [
            {
              "internalType": "ctUint8",
              "name": "ciphertext",
              "type": "uint256"
            },
            {
              "internalType": "bytes",
              "name": "signature",
              "type": "bytes"
            }
          ],
          "internalType": "struct itUint8",
          "name": "encryptedVote",
          "type": "tuple"
        }
      ],
      "name": "castVote",
      "outputs": [],
      "stateMutability": "nonpayable",
      "type": "function"
    },
    {
      "inputs": [
        {
          "components": [
            {
              "internalType": "ctUint8",
              "name": "ciphertext",
              "type": "uint256"
            },
            {
              "internalType": "bytes",
              "name": "signature",
              "type": "bytes"
            }
          ],
          "internalType": "struct itUint8",
          "name": "newEncryptedVote",
          "type": "tuple"
        }
      ],
      "name": "changeVote",
      "outputs": [],
      "stateMutability": "nonpayable",
      "type": "function"
    },
    {
      "inputs": [],
      "name": "electionOpened",
      "outputs": [
        {
          "internalType": "bool",
          "name": "",
          "type": "bool"
        }
      ],
      "stateMutability": "view",
      "type": "function"
    },
    {
      "inputs": [],
      "name": "getElectionStatus",
      "outputs": [
        {
          "internalType": "bool",
          "name": "isOpen",
          "type": "bool"
        },
        {
          "internalType": "uint256",
          "name": "voterCount",
          "type": "uint256"
        },
        {
          "internalType": "address",
          "name": "electionOwner",
          "type": "address"
        }
      ],
      "stateMutability": "view",
      "type": "function"
    },
    {
      "inputs": [],
      "name": "getRegisteredVoterCount",
      "outputs": [
        {
          "internalType": "uint256",
          "name": "",
          "type": "uint256"
        }
      ],
      "stateMutability": "view",
      "type": "function"
    },
    {
      "inputs": [],
      "name": "getResults",
      "outputs": [
        {
          "components": [
            {
              "internalType": "uint8",
              "name": "optionId",
              "type": "uint8"
            },
            {
              "internalType": "string",
              "name": "optionLabel",
              "type": "string"
            },
            {
              "internalType": "uint64",
              "name": "voteCount",
              "type": "uint64"
            }
          ],
          "internalType": "struct COTIVotingContract.VoteResult[4]",
          "name": "",
          "type": "tuple[4]"
        }
      ],
      "stateMutability": "nonpayable",
      "type": "function"
    },
    {
      "inputs": [],
      "name": "getVoterAddresses",
      "outputs": [
        {
          "internalType": "address[]",
          "name": "",
          "type": "address[]"
        }
      ],
      "stateMutability": "view",
      "type": "function"
    },
    {
      "inputs": [
        {
          "internalType": "address",
          "name": "voterId",
          "type": "address"
        }
      ],
      "name": "getVoterInfo",
      "outputs": [
        {
          "internalType": "string",
          "name": "name",
          "type": "string"
        },
        {
          "internalType": "bool",
          "name": "isRegistered",
          "type": "bool"
        }
      ],
      "stateMutability": "view",
      "type": "function"
    },
    {
      "inputs": [],
      "name": "getVotingOptions",
      "outputs": [
        {
          "components": [
            {
              "internalType": "uint8",
              "name": "id",
              "type": "uint8"
            },
            {
              "internalType": "string",
              "name": "label",
              "type": "string"
            }
          ],
          "internalType": "struct COTIVotingContract.VoteOption[4]",
          "name": "",
          "type": "tuple[4]"
        }
      ],
      "stateMutability": "view",
      "type": "function"
    },
    {
      "inputs": [],
      "name": "getVotingQuestion",
      "outputs": [
        {
          "internalType": "string",
          "name": "",
          "type": "string"
        }
      ],
      "stateMutability": "pure",
      "type": "function"
    },
    {
      "inputs": [
        {
          "internalType": "address",
          "name": "voterId",
          "type": "address"
        }
      ],
      "name": "isVoterRegistered",
      "outputs": [
        {
          "internalType": "bool",
          "name": "",
          "type": "bool"
        }
      ],
      "stateMutability": "view",
      "type": "function"
    },
    {
      "inputs": [],
      "name": "toggleElection",
      "outputs": [],
      "stateMutability": "nonpayable",
      "type": "function"
    },
    {
      "inputs": [
        {
          "internalType": "uint8",
          "name": "optionId",
          "type": "uint8"
        }
      ],
      "name": "validateVoteOption",
      "outputs": [
        {
          "internalType": "bool",
          "name": "",
          "type": "bool"
        }
      ],
      "stateMutability": "pure",
      "type": "function"
    },
    {
      "inputs": [
        {
          "internalType": "uint256",
          "name": "",
          "type": "uint256"
        }
      ],
      "name": "voterAddresses",
      "outputs": [
        {
          "internalType": "address",
          "name": "",
          "type": "address"
        }
      ],
      "stateMutability": "view",
      "type": "function"
    },
    {
      "inputs": [
        {
          "internalType": "address",
          "name": "",
          "type": "address"
        }
      ],
      "name": "voters",
      "outputs": [
        {
          "internalType": "string",
          "name": "name",
          "type": "string"
        },
        {
          "internalType": "address",
          "name": "voterId",
          "type": "address"
        },
        {
          "components": [
            {
              "internalType": "ctUint8",
              "name": "ciphertext",
              "type": "uint256"
            },
            {
              "internalType": "ctUint8",
              "name": "userCiphertext",
              "type": "uint256"
            }
          ],
          "internalType": "struct utUint8",
          "name": "encryptedVote",
          "type": "tuple"
        },
        {
          "internalType": "bool",
          "name": "isRegistered",
          "type": "bool"
        },
        {
          "internalType": "bool",
          "name": "hasVoted",
          "type": "bool"
        }
      ],
      "stateMutability": "view",
      "type": "function"
    },
    {
      "inputs": [
        {
          "internalType": "uint256",
          "name": "",
          "type": "uint256"
        }
      ],
      "name": "votingOptions",
      "outputs": [
        {
          "internalType": "uint8",
          "name": "id",
          "type": "uint8"
        },
        {
          "internalType": "string",
          "name": "label",
          "type": "string"
        }
      ],
      "stateMutability": "view",
      "type": "function"
    }
  ],
  "bytecode": "0x60806040523480156200001157600080fd5b50600a805460ff19610100330281166001600160a81b03199092169190911760019081179092556040805180820182528381528151808301909252600982526843686f636f6c61746560b81b602080840191909152810182905280516000805460ff9092169190941617835592906200008b90826200024b565b505060408051808201825260028082528251808401909352600983526852617370626572727960b81b60208085019190915282018390528151815460ff191660ff90911617815590925090600390620000e590826200024b565b505060408051808201825260038152815180830190925260088252670a6c2dcc8eed2c6d60c31b602080840191909152810182905280516004805460ff191660ff909216919091178155909250906005906200014290826200024b565b505060408051808201825260048152815180830190925260058252644d616e676f60d81b602080840191909152810182905280516006805460ff191660ff909216919091178155909250906007906200019c90826200024b565b5090505062000317565b634e487b7160e01b600052604160045260246000fd5b600181811c90821680620001d157607f821691505b602082108103620001f257634e487b7160e01b600052602260045260246000fd5b50919050565b601f8211156200024657600081815260208120601f850160051c81016020861015620002215750805b601f850160051c820191505b8181101562000242578281556001016200022d565b5050505b505050565b81516001600160401b03811115620002675762000267620001a6565b6200027f81620002788454620001bc565b84620001f8565b602080601f831160018114620002b757600084156200029e5750858301515b600019600386901b1c1916600185901b17855562000242565b600085815260208120601f198616915b82811015620002e857888601518255948401946001909101908401620002c7565b5085821015620003075787850151600019600388901b60f8161c191681555b5050505050600190811b01905550565b611c0880620003276000396000f3fe608060405234801561001057600080fd5b506004361061010b5760003560e01c8063857a5ed0116100a2578063d709032211610071578063d709032214610284578063dd0e23731461028c578063dff67f6b146102b7578063eb2119db146102d8578063fa0f82a21461030757600080fd5b8063857a5ed01461021f5780639ed1f25514610232578063a3ec138d14610253578063d4ff91931461027757600080fd5b80635607395b116100de5780635607395b1461019357806364fc75e0146101a857806368cdfda5146101cb57806383859cf71461020a57600080fd5b80630a16e30b14610110578063122902a61461012e5780632b8c25041461016d5780634717f97c1461017e575b600080fd5b61011861031a565b60405161012591906115a5565b60405180910390f35b600a5460095460ff82169161010090046001600160a01b031660408051931515845260208401929092526001600160a01b031690820152606001610125565b600954604051908152602001610125565b61018661037c565b6040516101259190611638565b6101a66101a136600461175b565b61055a565b005b6101bb6101b63660046117bd565b6107e5565b6040519015158152602001610125565b604080518082018252601b81527f5768617420697320796f7572206661766f7269746520666f6f643f00000000006020820152905161012591906117e0565b610212610805565b60405161012591906117f3565b6101a661022d36600461184b565b6108ed565b610245610240366004611886565b6109c9565b6040516101259291906118a1565b610266610261366004611886565b610afd565b6040516101259594939291906118c5565b600a546101bb9060ff1681565b6101a6610bdb565b61029f61029a366004611914565b610c8b565b6040516001600160a01b039091168152602001610125565b6102ca6102c5366004611914565b610cb5565b60405161012592919061192d565b6101bb6102e6366004611886565b6001600160a01b031660009081526008602052604090206004015460ff1690565b6101a661031536600461184b565b610d65565b6060600980548060200260200160405190810160405280929190818152602001828054801561037257602002820191906000526020600020905b81546001600160a01b03168152600190910190602001808311610354575b5050505050905090565b610384611515565b600a5460ff16156103a8576040516373cbb3a360e11b815260040160405180910390fd5b6009546000036103cb5760405163a30aca8f60e01b815260040160405180910390fd5b6103d3610e2e565b6103db611515565b60005b60048160ff161015610554576000808260ff166004811061040157610401611949565b600202015460ff9081169150600090819084166004811061042457610424611949565b6002020160010180546104369061195f565b80601f01602080910402602001604051908101604052809291908181526020018280546104629061195f565b80156104af5780601f10610484576101008083540402835291602001916104af565b820191906000526020600020905b81548152906001019060200180831161049257829003601f168201915b505060155493945060009360ff161592506104fb9150505760006104ec600b8560ff16600581106104e2576104e2611949565b6002020154611135565b90506104f7816111ba565b9150505b60405180606001604052808460ff1681526020018381526020018267ffffffffffffffff16815250858560ff166004811061053857610538611949565b60200201525082915061054c9050816119af565b9150506103de565b50905090565b600a5461010090046001600160a01b0316331461058a57604051630e2f7eff60e31b815260040160405180910390fd5b6001600160a01b03811660009081526008602052604090206004015460ff16156105d75760405163c501dbfd60e01b81526001600160a01b03821660048201526024015b60405180910390fd5b6001600160a01b0381166105fe576040516320798b3f60e21b815260040160405180910390fd5b815160000361062057604051635c55fdb360e01b815260040160405180910390fd5b816000805b82518110156106755782818151811061064057610640611949565b6020910101516001600160f81b031916600160fd1b146106635760019150610675565b8061066d816119ce565b915050610625565b508061069457604051635c55fdb360e01b815260040160405180910390fd5b60408051808201909152600080825260208201526040805160a0810182528681526001600160a01b0386166020808301829052828401859052600160608401526000608084018190529182526008905291909120815181906106f69082611a36565b50602082810151600180840180546001600160a01b039384166001600160a01b0319918216179091556040808701518051600288015590940151600386015560608601516004909501805460809097015115156101000261ff00199615159690961661ffff1990971696909617949094179094556009805494850181556000527f6e1540171b6c0c960b71a7020d9f60077f6af931a8bbf590da0223dacf75c7af9093018054938816939092168317909155517fffeb7702be7dcd8fee170d954b70afb9a7c78f7f5cff232d037e7b9d8243356a906107d69088906117e0565b60405180910390a25050505050565b600060018260ff16101580156107ff575060048260ff1611155b92915050565b61080d61156b565b60408051608081019091526000600481835b828210156108e45760408051808201909152600283028501805460ff1682526001810180546020840191906108539061195f565b80601f016020809104026020016040519081016040528092919081815260200182805461087f9061195f565b80156108cc5780601f106108a1576101008083540402835291602001916108cc565b820191906000526020600020905b8154815290600101906020018083116108af57829003601f168201915b5050505050815250508152602001906001019061081f565b50505050905090565b3360009081526008602052604090206004015460ff1661092257604051639d8ab59d60e01b81523360048201526024016105ce565b600a5460ff166109455760405163a549b9ad60e01b815260040160405180910390fd5b600061095861095383611af6565b6111ca565b9050600061096682336111fe565b336000818152600860209081526040808320855160028201559185015160038301556004909101805461ff0019166101001790555192935090917fb87a61d78bd15221c59b983f6ef032fbde0631e66bfe18d1421fe5a73c16741d9190a2505050565b606060008060086000856001600160a01b03166001600160a01b031681526020019081526020016000206040518060a0016040529081600082018054610a0e9061195f565b80601f0160208091040260200160405190810160405280929190818152602001828054610a3a9061195f565b8015610a875780601f10610a5c57610100808354040283529160200191610a87565b820191906000526020600020905b815481529060010190602001808311610a6a57829003601f168201915b505050918352505060018201546001600160a01b03166020808301919091526040805180820182526002850154815260038501549281019290925282015260049091015460ff80821615156060808501919091526101009092041615156080909201919091528151910151909590945092505050565b600860205260009081526040902080548190610b189061195f565b80601f0160208091040260200160405190810160405280929190818152602001828054610b449061195f565b8015610b915780601f10610b6657610100808354040283529160200191610b91565b820191906000526020600020905b815481529060010190602001808311610b7457829003601f168201915b50505050600183015460408051808201909152600285015481526003850154602082015260049094015492936001600160a01b039091169290915060ff8082169161010090041685565b600a5461010090046001600160a01b03163314610c0b57604051630e2f7eff60e31b815260040160405180910390fd5b600a5460ff168015610c1d5750600954155b15610c3e57604051600162fbea0960e01b0319815260040160405180910390fd5b600a805460ff8082161560ff1990921682179092556040519116151581527f58d99f1d0dfdad6caf2b8823434b82787ace21d736432d69520958d8428c59989060200160405180910390a1565b60098181548110610c9b57600080fd5b6000918252602090912001546001600160a01b0316905081565b60008160048110610cc557600080fd5b60020201805460018201805460ff909216935090610ce29061195f565b80601f0160208091040260200160405190810160405280929190818152602001828054610d0e9061195f565b8015610d5b5780601f10610d3057610100808354040283529160200191610d5b565b820191906000526020600020905b815481529060010190602001808311610d3e57829003601f168201915b5050505050905082565b3360009081526008602052604090206004015460ff16610d9a57604051639d8ab59d60e01b81523360048201526024016105ce565b600a5460ff16610dbd5760405163a549b9ad60e01b815260040160405180910390fd5b6000610dcb61095383611af6565b90506000610dd982336111fe565b33600081815260086020908152604080832085516002820155918501516003909201919091555192935090917fbcc6791025780c5d3b88b0f64e6493105037fe9c3d97a963f14d4d3479e75a6b9190a2505050565b600954600003610e515760405163a30aca8f60e01b815260040160405180910390fd5b6000805b600954811015610ec7576008600060098381548110610e7657610e76611949565b60009182526020808320909101546001600160a01b0316835282019290925260400190206004015460ff6101009091041615610eb55760019150610ec7565b80610ebf816119ce565b915050610e55565b5080610ee65760405163354ba2d560e01b815260040160405180910390fd5b60155460ff16610f855760015b60048160ff1611610f76576000610f0a6000611232565b90506000610f2d82600a60019054906101000a90046001600160a01b031661126d565b905080600b8460ff1660058110610f4657610f46611949565b60020201600082015181600001556020820151816001015590505050508080610f6e906119af565b915050610ef3565b506015805460ff191660011790555b60005b60095481101561113157600060098281548110610fa757610fa7611949565b60009182526020808320909101546001600160a01b03168083526008909152604090912060048101549192509060ff16610fff5760405163448c8c0560e01b81526001600160a01b03831660048201526024016105ce565b6004810154610100900460ff1661101757505061111f565b60006110298260020160000154611296565b905060015b60048160ff161161111a576000611044826112a6565b9050600061105284836112da565b905060006110606001611232565b9050600061106e6000611232565b9050600061107d848385611370565b9050600061109a600b8860ff16600581106104e2576104e2611949565b905060006110a8828461140d565b905060006110cb82600a60019054906101000a90046001600160a01b031661126d565b905080600b8a60ff16600581106110e4576110e4611949565b60020201600082015181600001556020820151816001015590505050505050505050508080611112906119af565b91505061102e565b505050505b80611129816119ce565b915050610f88565b5050565b6000606463d2c135e560045b60f81b846040518363ffffffff1660e01b81526004016111779291906001600160f81b0319929092168252602082015260400190565b6020604051808303816000875af1158015611196573d6000803e3d6000fd5b505050506040513d601f19601f820116820180604052508101906107ff9190611b8b565b60006064630cfed5616004611141565b80516020820151604051630e4f36e160e41b815260009260649263e4f36e109261117792600160f81b929091600401611ba4565b604080518082019091526000808252602082015261121b83611422565b81526112278383611432565b602082015292915050565b6040516306cdb05b60e51b8152600160fa1b600482015267ffffffffffffffff8216602482015260009060649063d9b60b6090604401611177565b604080518082019091526000808252602082015261128a83611498565b815261122783836114a8565b6000606463d2c135e56001611141565b6040516306cdb05b60e51b8152600160f81b600482015260ff8216602482015260009060649063d9b60b6090604401611177565b60006064637c12a1eb6112ef600180856114b8565b6040516001600160e01b031960e084901b1681526001600160e81b0319909116600482015260248101869052604481018590526064015b6020604051808303816000875af1158015611345573d6000803e3d6000fd5b505050506040513d601f19601f820116820180604052508101906113699190611b8b565b9392505050565b600060646320cc408d611385600480856114b8565b6040516001600160e01b031960e084901b1681526001600160e81b031990911660048201526024810187905260448101869052606481018590526084016020604051808303816000875af11580156113e1573d6000803e3d6000fd5b505050506040513d601f19601f820116820180604052508101906114059190611b8b565b949350505050565b60006064638c5d01506112ef600480856114b8565b6000606463c50c9c026001611141565b60006064633c6f0e6860015b60f81b858560405160200161146b919060609190911b6bffffffffffffffffffffffff1916815260140190565b6040516020818303038152906040526040518463ffffffff1660e01b815260040161132693929190611ba4565b6000606463c50c9c026004611141565b60006064633c6f0e68600461143e565b60008160028111156114cc576114cc611b75565b60ff1660088460048111156114e3576114e3611b75565b61ffff16901b61ffff16601086600481111561150157611501611b75565b62ffffff16901b171760e81b949350505050565b60405180608001604052806004905b6115556040518060600160405280600060ff16815260200160608152602001600067ffffffffffffffff1681525090565b8152602001906001900390816115245790505090565b60405180608001604052806004905b60408051808201909152600081526060602082015281526020019060019003908161157a5790505090565b6020808252825182820181905260009190848201906040850190845b818110156115e65783516001600160a01b0316835292840192918401916001016115c1565b50909695505050505050565b6000815180845260005b81811015611618576020818501810151868301820152016115fc565b506000602082860101526020601f19601f83011685010191505092915050565b602080825260009060a0830183820185845b60048110156116a757601f198785030183528151606060ff825116865286820151818888015261167c828801826115f2565b60409384015167ffffffffffffffff169790930196909652509350918401919084019060010161164a565b50919695505050505050565b634e487b7160e01b600052604160045260246000fd5b600067ffffffffffffffff808411156116e4576116e46116b3565b604051601f8501601f19908116603f0116810190828211818310171561170c5761170c6116b3565b8160405280935085815286868601111561172557600080fd5b858560208301376000602087830101525050509392505050565b80356001600160a01b038116811461175657600080fd5b919050565b6000806040838503121561176e57600080fd5b823567ffffffffffffffff81111561178557600080fd5b8301601f8101851361179657600080fd5b6117a5858235602084016116c9565b9250506117b46020840161173f565b90509250929050565b6000602082840312156117cf57600080fd5b813560ff8116811461136957600080fd5b60208152600061136960208301846115f2565b602080825260009060a0830183820185845b60048110156116a757868403601f190183528151805160ff1685528501516040868601819052611837818701836115f2565b955050509184019190840190600101611805565b60006020828403121561185d57600080fd5b813567ffffffffffffffff81111561187457600080fd5b82016040818503121561136957600080fd5b60006020828403121561189857600080fd5b6113698261173f565b6040815260006118b460408301856115f2565b905082151560208301529392505050565b60c0815260006118d860c08301886115f2565b6001600160a01b039690961660208381019190915285516040840152949094015160608201529115156080830152151560a09091015250919050565b60006020828403121561192657600080fd5b5035919050565b60ff8316815260406020820152600061140560408301846115f2565b634e487b7160e01b600052603260045260246000fd5b600181811c9082168061197357607f821691505b60208210810361199357634e487b7160e01b600052602260045260246000fd5b50919050565b634e487b7160e01b600052601160045260246000fd5b600060ff821660ff81036119c5576119c5611999565b60010192915050565b6000600182016119e0576119e0611999565b5060010190565b601f821115611a3157600081815260208120601f850160051c81016020861015611a0e5750805b601f850160051c820191505b81811015611a2d57828155600101611a1a565b5050505b505050565b815167ffffffffffffffff811115611a5057611a506116b3565b611a6481611a5e845461195f565b846119e7565b602080601f831160018114611a995760008415611a815750858301515b600019600386901b1c1916600185901b178555611a2d565b600085815260208120601f198616915b82811015611ac857888601518255948401946001909101908401611aa9565b5085821015611ae65787850151600019600388901b60f8161c191681555b5050505050600190811b01905550565b600060408236031215611b0857600080fd5b6040516040810167ffffffffffffffff8282108183111715611b2c57611b2c6116b3565b81604052843583526020850135915080821115611b4857600080fd5b50830136601f820112611b5a57600080fd5b611b69368235602084016116c9565b60208301525092915050565b634e487b7160e01b600052602160045260246000fd5b600060208284031215611b9d57600080fd5b5051919050565b60ff60f81b84168152826020820152606060408201526000611bc960608301846115f2565b9594505050505056fea2646970667358221220372d019b75be619db39ad2865d514acb2c9f2defc725e110f32ff5cd9e692b8e64736f6c63430008130033",
  "linkReferences": {},
  "deployedLinkReferences": {}
}