{
  "_format": "hh-sol-artifact-1",
  "contractName": "COTIVotingContract",
  "sourceName": "contracts/COTIVotingContract.sol",
  "abi": [
    {
      "inputs": [],
      "stateMutability": "nonpayable",
      "type": "constructor"
    },
    {
      "inputs": [],
      "name": "CannotCloseElectionWithoutVoters",
      "type": "error"
    },
    {
      "inputs": [],
      "name": "ElectionClosed",
      "type": "error"
    },
    {
      "inputs": [],
      "name": "ElectionStillOpen",
      "type": "error"
    },
    {
      "inputs": [],
      "name": "EmptyVoterName",
      "type": "error"
    },
    {
      "inputs": [
        {
          "internalType": "uint8",
          "name": "option",
          "type": "uint8"
        }
      ],
      "name": "InvalidVoteOption",
      "type": "error"
    },
    {
      "inputs": [],
      "name": "InvalidVoterAddress",
      "type": "error"
    },
    {
      "inputs": [
        {
          "internalType": "address",
          "name": "voter",
          "type": "address"
        }
      ],
      "name": "InvalidVoterState",
      "type": "error"
    },
    {
      "inputs": [],
      "name": "NoVotersRegistered",
      "type": "error"
    },
    {
      "inputs": [],
      "name": "NoVotesCast",
      "type": "error"
    },
    {
      "inputs": [],
      "name": "OnlyOwnerAllowed",
      "type": "error"
    },
    {
      "inputs": [
        {
          "internalType": "address",
          "name": "voter",
          "type": "address"
        }
      ],
      "name": "VoterAlreadyRegistered",
      "type": "error"
    },
    {
      "inputs": [
        {
          "internalType": "address",
          "name": "voter",
          "type": "address"
        }
      ],
      "name": "VoterHasNotVoted",
      "type": "error"
    },
    {
      "inputs": [
        {
          "internalType": "address",
          "name": "voter",
          "type": "address"
        }
      ],
      "name": "VoterNotRegistered",
      "type": "error"
    },
    {
      "anonymous": false,
      "inputs": [
        {
          "indexed": false,
          "internalType": "bool",
          "name": "isOpen",
          "type": "bool"
        }
      ],
      "name": "ElectionStateChanged",
      "type": "event"
    },
    {
      "anonymous": false,
      "inputs": [
        {
          "indexed": true,
          "internalType": "address",
          "name": "voter",
          "type": "address"
        }
      ],
      "name": "OwnerAuthorized",
      "type": "event"
    },
    {
      "anonymous": false,
      "inputs": [
        {
          "indexed": true,
          "internalType": "uint8",
          "name": "optionId",
          "type": "uint8"
        },
        {
          "indexed": false,
          "internalType": "string",
          "name": "optionLabel",
          "type": "string"
        },
        {
          "indexed": false,
          "internalType": "uint64",
          "name": "voteCount",
          "type": "uint64"
        }
      ],
      "name": "ResultsDecrypted",
      "type": "event"
    },
    {
      "anonymous": false,
      "inputs": [
        {
          "indexed": true,
          "internalType": "address",
          "name": "voter",
          "type": "address"
        }
      ],
      "name": "VoteCast",
      "type": "event"
    },
    {
      "anonymous": false,
      "inputs": [
        {
          "indexed": true,
          "internalType": "address",
          "name": "voter",
          "type": "address"
        }
      ],
      "name": "VoteChanged",
      "type": "event"
    },
    {
      "anonymous": false,
      "inputs": [
        {
          "indexed": true,
          "internalType": "address",
          "name": "voterId",
          "type": "address"
        },
        {
          "indexed": false,
          "internalType": "string",
          "name": "name",
          "type": "string"
        }
      ],
      "name": "VoterRegistered",
      "type": "event"
    },
    {
      "inputs": [
        {
          "internalType": "string",
          "name": "name",
          "type": "string"
        },
        {
          "internalType": "address",
          "name": "voterId",
          "type": "address"
        }
      ],
      "name": "addVoter",
      "outputs": [],
      "stateMutability": "nonpayable",
      "type": "function"
    },
    {
      "inputs": [],
      "name": "aggregateVotes",
      "outputs": [],
      "stateMutability": "nonpayable",
      "type": "function"
    },
    {
      "inputs": [],
      "name": "authorizeOwnerToReadVote",
      "outputs": [],
      "stateMutability": "nonpayable",
      "type": "function"
    },
    {
      "inputs": [
        {
          "components": [
            {
              "internalType": "ctUint8",
              "name": "ciphertext",
              "type": "uint256"
            },
            {
              "internalType": "bytes",
              "name": "signature",
              "type": "bytes"
            }
          ],
          "internalType": "struct itUint8",
          "name": "encryptedVote",
          "type": "tuple"
        }
      ],
      "name": "castVote",
      "outputs": [],
      "stateMutability": "nonpayable",
      "type": "function"
    },
    {
      "inputs": [
        {
          "components": [
            {
              "internalType": "ctUint8",
              "name": "ciphertext",
              "type": "uint256"
            },
            {
              "internalType": "bytes",
              "name": "signature",
              "type": "bytes"
            }
          ],
          "internalType": "struct itUint8",
          "name": "newEncryptedVote",
          "type": "tuple"
        }
      ],
      "name": "changeVote",
      "outputs": [],
      "stateMutability": "nonpayable",
      "type": "function"
    },
    {
      "inputs": [],
      "name": "electionOpened",
      "outputs": [
        {
          "internalType": "bool",
          "name": "",
          "type": "bool"
        }
      ],
      "stateMutability": "view",
      "type": "function"
    },
    {
      "inputs": [],
      "name": "getElectionStatus",
      "outputs": [
        {
          "internalType": "bool",
          "name": "isOpen",
          "type": "bool"
        },
        {
          "internalType": "uint256",
          "name": "voterCount",
          "type": "uint256"
        },
        {
          "internalType": "address",
          "name": "electionOwner",
          "type": "address"
        }
      ],
      "stateMutability": "view",
      "type": "function"
    },
    {
      "inputs": [],
      "name": "getMyVote",
      "outputs": [
        {
          "internalType": "ctUint8",
          "name": "",
          "type": "uint256"
        }
      ],
      "stateMutability": "nonpayable",
      "type": "function"
    },
    {
      "inputs": [],
      "name": "getRegisteredVoterCount",
      "outputs": [
        {
          "internalType": "uint256",
          "name": "",
          "type": "uint256"
        }
      ],
      "stateMutability": "view",
      "type": "function"
    },
    {
      "inputs": [],
      "name": "getResults",
      "outputs": [
        {
          "components": [
            {
              "internalType": "uint8",
              "name": "optionId",
              "type": "uint8"
            },
            {
              "internalType": "string",
              "name": "optionLabel",
              "type": "string"
            },
            {
              "internalType": "uint64",
              "name": "voteCount",
              "type": "uint64"
            }
          ],
          "internalType": "struct COTIVotingContract.VoteResult[4]",
          "name": "",
          "type": "tuple[4]"
        }
      ],
      "stateMutability": "nonpayable",
      "type": "function"
    },
    {
      "inputs": [],
      "name": "getVoterAddresses",
      "outputs": [
        {
          "internalType": "address[]",
          "name": "",
          "type": "address[]"
        }
      ],
      "stateMutability": "view",
      "type": "function"
    },
    {
      "inputs": [
        {
          "internalType": "address",
          "name": "voterId",
          "type": "address"
        }
      ],
      "name": "getVoterInfo",
      "outputs": [
        {
          "internalType": "string",
          "name": "name",
          "type": "string"
        },
        {
          "internalType": "bool",
          "name": "isRegistered",
          "type": "bool"
        }
      ],
      "stateMutability": "view",
      "type": "function"
    },
    {
      "inputs": [],
      "name": "getVotingOptions",
      "outputs": [
        {
          "components": [
            {
              "internalType": "uint8",
              "name": "id",
              "type": "uint8"
            },
            {
              "internalType": "string",
              "name": "label",
              "type": "string"
            }
          ],
          "internalType": "struct COTIVotingContract.VoteOption[4]",
          "name": "",
          "type": "tuple[4]"
        }
      ],
      "stateMutability": "view",
      "type": "function"
    },
    {
      "inputs": [],
      "name": "getVotingQuestion",
      "outputs": [
        {
          "internalType": "string",
          "name": "",
          "type": "string"
        }
      ],
      "stateMutability": "pure",
      "type": "function"
    },
    {
      "inputs": [
        {
          "internalType": "address",
          "name": "voterId",
          "type": "address"
        }
      ],
      "name": "isVoterRegistered",
      "outputs": [
        {
          "internalType": "bool",
          "name": "",
          "type": "bool"
        }
      ],
      "stateMutability": "view",
      "type": "function"
    },
    {
      "inputs": [],
      "name": "toggleElection",
      "outputs": [],
      "stateMutability": "nonpayable",
      "type": "function"
    },
    {
      "inputs": [
        {
          "internalType": "uint8",
          "name": "optionId",
          "type": "uint8"
        }
      ],
      "name": "validateVoteOption",
      "outputs": [
        {
          "internalType": "bool",
          "name": "",
          "type": "bool"
        }
      ],
      "stateMutability": "pure",
      "type": "function"
    },
    {
      "inputs": [],
      "name": "viewResults",
      "outputs": [
        {
          "components": [
            {
              "internalType": "uint8",
              "name": "optionId",
              "type": "uint8"
            },
            {
              "internalType": "string",
              "name": "optionLabel",
              "type": "string"
            },
            {
              "internalType": "uint64",
              "name": "voteCount",
              "type": "uint64"
            }
          ],
          "internalType": "struct COTIVotingContract.VoteResult[4]",
          "name": "",
          "type": "tuple[4]"
        }
      ],
      "stateMutability": "view",
      "type": "function"
    },
    {
      "inputs": [
        {
          "internalType": "uint256",
          "name": "",
          "type": "uint256"
        }
      ],
      "name": "voterAddresses",
      "outputs": [
        {
          "internalType": "address",
          "name": "",
          "type": "address"
        }
      ],
      "stateMutability": "view",
      "type": "function"
    },
    {
      "inputs": [
        {
          "internalType": "address",
          "name": "",
          "type": "address"
        }
      ],
      "name": "voters",
      "outputs": [
        {
          "internalType": "string",
          "name": "name",
          "type": "string"
        },
        {
          "internalType": "address",
          "name": "voterId",
          "type": "address"
        },
        {
          "internalType": "ctUint8",
          "name": "encryptedVote",
          "type": "uint256"
        },
        {
          "internalType": "bool",
          "name": "isRegistered",
          "type": "bool"
        },
        {
          "internalType": "bool",
          "name": "hasVoted",
          "type": "bool"
        },
        {
          "internalType": "bool",
          "name": "hasAuthorizedOwner",
          "type": "bool"
        }
      ],
      "stateMutability": "view",
      "type": "function"
    },
    {
      "inputs": [
        {
          "internalType": "uint256",
          "name": "",
          "type": "uint256"
        }
      ],
      "name": "votingOptions",
      "outputs": [
        {
          "internalType": "uint8",
          "name": "id",
          "type": "uint8"
        },
        {
          "internalType": "string",
          "name": "label",
          "type": "string"
        }
      ],
      "stateMutability": "view",
      "type": "function"
    }
  ],
  "bytecode": "0x60806040523480156200001157600080fd5b50600a805460ff19610100330281166001600160a81b03199092169190911760019081179092556040805180820182528381528151808301909252600982526843686f636f6c61746560b81b602080840191909152810182905280516000805460ff9092169190941617835592906200008b90826200024b565b505060408051808201825260028082528251808401909352600983526852617370626572727960b81b60208085019190915282018390528151815460ff191660ff90911617815590925090600390620000e590826200024b565b505060408051808201825260038152815180830190925260088252670a6c2dcc8eed2c6d60c31b602080840191909152810182905280516004805460ff191660ff909216919091178155909250906005906200014290826200024b565b505060408051808201825260048152815180830190925260058252644d616e676f60d81b602080840191909152810182905280516006805460ff191660ff909216919091178155909250906007906200019c90826200024b565b5090505062000317565b634e487b7160e01b600052604160045260246000fd5b600181811c90821680620001d157607f821691505b602082108103620001f257634e487b7160e01b600052602260045260246000fd5b50919050565b601f8211156200024657600081815260208120601f850160051c81016020861015620002215750805b601f850160051c820191505b8181101562000242578281556001016200022d565b5050505b505050565b81516001600160401b03811115620002675762000267620001a6565b6200027f81620002788454620001bc565b84620001f8565b602080601f831160018114620002b757600084156200029e5750858301515b600019600386901b1c1916600185901b17855562000242565b600085815260208120601f198616915b82811015620002e857888601518255948401946001909101908401620002c7565b5085821015620003075787850151600019600388901b60f8161c191681555b5050505050600190811b01905550565b6120b380620003276000396000f3fe608060405234801561001057600080fd5b50600436106101375760003560e01c80639ed1f255116100b8578063d60debb91161007c578063d60debb9146102ca578063d7090322146102d2578063dd0e2373146102da578063dff67f6b14610305578063eb2119db14610326578063fa0f82a21461035557600080fd5b80639ed1f25514610267578063a3ec138d14610288578063a980ff0e146102ad578063d4ff9193146102b5578063d55ab095146102c257600080fd5b806364fc75e0116100ff57806364fc75e0146101d557806368cdfda5146101f857806383859cf714610237578063857a5ed01461024c5780638cb647d31461025f57600080fd5b80630a16e30b1461013c578063122902a61461015a5780632b8c2504146101995780634717f97c146101ab5780635607395b146101c0575b600080fd5b610144610368565b6040516101519190611a2a565b60405180910390f35b600a5460095460ff82169161010090046001600160a01b031660408051931515845260208401929092526001600160a01b031690820152606001610151565b6009545b604051908152602001610151565b6101b36103ca565b6040516101519190611abd565b6101d36101ce366004611be0565b6105e2565b005b6101e86101e3366004611c42565b61086b565b6040519015158152602001610151565b604080518082018252601b81527f5768617420697320796f7572206661766f7269746520666f6f643f0000000000602082015290516101519190611c65565b61023f61088b565b6040516101519190611c78565b6101d361025a366004611cd0565b610973565b61019d610a9b565b61027a610275366004611d0b565b610b3b565b604051610151929190611d26565b61029b610296366004611d0b565b610c65565b60405161015196959493929190611d4a565b6101d3610d36565b600a546101e89060ff1681565b6101b3610d64565b6101d3610f68565b6101d361104f565b6102ed6102e8366004611d93565b611117565b6040516001600160a01b039091168152602001610151565b610318610313366004611d93565b611141565b604051610151929190611dac565b6101e8610334366004611d0b565b6001600160a01b031660009081526008602052604090206003015460ff1690565b6101d3610363366004611cd0565b6111f1565b606060098054806020026020016040519081016040528092919081815260200182805480156103c057602002820191906000526020600020905b81546001600160a01b031681526001909101906020018083116103a2575b5050505050905090565b6103d261199a565b600a5460ff16156103f6576040516373cbb3a360e11b815260040160405180910390fd5b6009546000036104195760405163a30aca8f60e01b815260040160405180910390fd5b610421611306565b61042961199a565b60005b60048160ff1610156105dc576000808260ff166004811061044f5761044f611dc8565b600202015460ff9081169150600090819084166004811061047257610472611dc8565b60020201600101805461048490611dde565b80601f01602080910402602001604051908101604052809291908181526020018280546104b090611dde565b80156104fd5780601f106104d2576101008083540402835291602001916104fd565b820191906000526020600020905b8154815290600101906020018083116104e057829003601f168201915b505060105493945060009360ff16159250610583915050576000610537600b8560ff166005811061053057610530611dc8565b0154611633565b9050610542816116b8565b91508360ff167f8a27696378fd5b8aa31ae160a42b7f23c68ffd1d8f752d8ebfcbb528a62bf97d8484604051610579929190611e18565b60405180910390a2505b60405180606001604052808460ff1681526020018381526020018267ffffffffffffffff16815250858560ff16600481106105c0576105c0611dc8565b6020020152508291506105d4905081611e5a565b91505061042c565b50905090565b600a5461010090046001600160a01b0316331461061257604051630e2f7eff60e31b815260040160405180910390fd5b6001600160a01b03811660009081526008602052604090206003015460ff161561065f5760405163c501dbfd60e01b81526001600160a01b03821660048201526024015b60405180910390fd5b6001600160a01b038116610686576040516320798b3f60e21b815260040160405180910390fd5b81516000036106a857604051635c55fdb360e01b815260040160405180910390fd5b816000805b82518110156106fd578281815181106106c8576106c8611dc8565b6020910101516001600160f81b031916600160fd1b146106eb57600191506106fd565b806106f581611e79565b9150506106ad565b508061071c57604051635c55fdb360e01b815260040160405180910390fd5b6040805160c0810182528581526001600160a01b03851660208083018290526000838501819052600160608501526080840181905260a0840181905291825260089052918220815181906107709082611ee1565b506020820151600180830180546001600160a01b039384166001600160a01b0319918216179091556040808601516002860155606086015160039095018054608088015160a0909801511515620100000262ff0000199815156101000261ff00199815159890981661ffff19909216919091179690961796909616949094179094556009805491820181556000527f6e1540171b6c0c960b71a7020d9f60077f6af931a8bbf590da0223dacf75c7af018054918816919093168117909255517fffeb7702be7dcd8fee170d954b70afb9a7c78f7f5cff232d037e7b9d8243356a9061085c908890611c65565b60405180910390a25050505050565b600060018260ff1610158015610885575060048260ff1611155b92915050565b6108936119f0565b60408051608081019091526000600481835b8282101561096a5760408051808201909152600283028501805460ff1682526001810180546020840191906108d990611dde565b80601f016020809104026020016040519081016040528092919081815260200182805461090590611dde565b80156109525780601f1061092757610100808354040283529160200191610952565b820191906000526020600020905b81548152906001019060200180831161093557829003601f168201915b505050505081525050815260200190600101906108a5565b50505050905090565b3360009081526008602052604090206003015460ff166109a857604051639d8ab59d60e01b8152336004820152602401610656565b600a5460ff166109cb5760405163a549b9ad60e01b815260040160405180910390fd5b60006109de6109d983611fa1565b6116c8565b905060006109eb826116fc565b33600090815260086020526040902060028101829055600301805461ff001916610100179081905590915062010000900460ff16610a6b5733600081815260086020526040808220600301805462ff0000191662010000179055517f088504cc656f0bf9393d86c793d2e71f5fdbb2736d7bc12cfd960306ac1ceddf9190a25b60405133907fb87a61d78bd15221c59b983f6ef032fbde0631e66bfe18d1421fe5a73c16741d90600090a2505050565b3360009081526008602052604081206003015460ff16610ad057604051639d8ab59d60e01b8152336004820152602401610656565b33600090815260086020526040902060030154610100900460ff16610b0a5760405163f2f1626360e01b8152336004820152602401610656565b33600090815260086020526040812060020154610b269061170c565b90506000610b34823361171c565b9250505090565b606060008060086000856001600160a01b03166001600160a01b031681526020019081526020016000206040518060c0016040529081600082018054610b8090611dde565b80601f0160208091040260200160405190810160405280929190818152602001828054610bac90611dde565b8015610bf95780601f10610bce57610100808354040283529160200191610bf9565b820191906000526020600020905b815481529060010190602001808311610bdc57829003601f168201915b505050918352505060018201546001600160a01b031660208201526002820154604082015260039091015460ff808216151560608085019190915261010083048216151560808501526201000090920416151560a0909201919091528151910151909590945092505050565b600860205260009081526040902080548190610c8090611dde565b80601f0160208091040260200160405190810160405280929190818152602001828054610cac90611dde565b8015610cf95780601f10610cce57610100808354040283529160200191610cf9565b820191906000526020600020905b815481529060010190602001808311610cdc57829003601f168201915b5050506001840154600285015460039095015493946001600160a01b039091169390925060ff808216925061010082048116916201000090041686565b600a5460ff1615610d5a576040516373cbb3a360e11b815260040160405180910390fd5b610d62611306565b565b610d6c61199a565b600a5460ff1615610d90576040516373cbb3a360e11b815260040160405180910390fd5b600954600003610db35760405163a30aca8f60e01b815260040160405180910390fd5b60105460ff16610e2d576040805162461bcd60e51b81526020600482015260248101919091527f566f7465732068617665206e6f74206265656e2061676772656761746564207960448201527f65742e2043616c6c20616767726567617465566f74657328292066697273742e6064820152608401610656565b610e3561199a565b60005b60048160ff1610156105dc576000808260ff1660048110610e5b57610e5b611dc8565b600202015460ff90811691506000908190841660048110610e7e57610e7e611dc8565b600202016001018054610e9090611dde565b80601f0160208091040260200160405190810160405280929190818152602001828054610ebc90611dde565b8015610f095780601f10610ede57610100808354040283529160200191610f09565b820191906000526020600020905b815481529060010190602001808311610eec57829003601f168201915b5050505050905060405180606001604052808360ff168152602001828152602001600067ffffffffffffffff16815250848460ff1660048110610f4e57610f4e611dc8565b602002015250819050610f6081611e5a565b915050610e38565b3360009081526008602052604090206003015460ff16610f9d57604051639d8ab59d60e01b8152336004820152602401610656565b3360009081526008602052604090206003015462010000900460ff16156110065760405162461bcd60e51b815260206004820152601860248201527f4f776e657220616c726561647920617574686f72697a656400000000000000006044820152606401610656565b33600081815260086020526040808220600301805462ff0000191662010000179055517f088504cc656f0bf9393d86c793d2e71f5fdbb2736d7bc12cfd960306ac1ceddf9190a2565b600a5461010090046001600160a01b0316331461107f57604051630e2f7eff60e31b815260040160405180910390fd5b600a5460ff1680156110915750600954155b156110b257604051600162fbea0960e01b0319815260040160405180910390fd5b600a805460ff19811660ff9182161590811790925516156110d9576010805461ffff191690555b600a5460405160ff909116151581527f58d99f1d0dfdad6caf2b8823434b82787ace21d736432d69520958d8428c59989060200160405180910390a1565b6009818154811061112757600080fd5b6000918252602090912001546001600160a01b0316905081565b6000816004811061115157600080fd5b60020201805460018201805460ff90921693509061116e90611dde565b80601f016020809104026020016040519081016040528092919081815260200182805461119a90611dde565b80156111e75780601f106111bc576101008083540402835291602001916111e7565b820191906000526020600020905b8154815290600101906020018083116111ca57829003601f168201915b5050505050905082565b3360009081526008602052604090206003015460ff1661122657604051639d8ab59d60e01b8152336004820152602401610656565b600a5460ff166112495760405163a549b9ad60e01b815260040160405180910390fd5b60006112576109d983611fa1565b90506000611264826116fc565b336000908152600860205260409020600281018290556003015490915062010000900460ff166112d65733600081815260086020526040808220600301805462ff0000191662010000179055517f088504cc656f0bf9393d86c793d2e71f5fdbb2736d7bc12cfd960306ac1ceddf9190a25b60405133907fbcc6791025780c5d3b88b0f64e6493105037fe9c3d97a963f14d4d3479e75a6b90600090a2505050565b6009546000036113295760405163a30aca8f60e01b815260040160405180910390fd5b601054610100900460ff161561133b57565b6000805b6009548110156113b157600860006009838154811061136057611360611dc8565b60009182526020808320909101546001600160a01b0316835282019290925260400190206003015460ff610100909104161561139f57600191506113b1565b806113a981611e79565b91505061133f565b50806113d05760405163354ba2d560e01b815260040160405180910390fd5b60015b60048160ff16116114275760006113ea60006117c0565b905060006113f7826117fb565b905080600b8460ff166005811061141057611410611dc8565b01555081905061141f81611e5a565b9150506113d3565b506010805460ff1916600117905560005b6009548110156116205760006009828154811061145757611457611dc8565b60009182526020808320909101546001600160a01b03168083526008909152604090912060038101549192509060ff166114af5760405163448c8c0560e01b81526001600160a01b0383166004820152602401610656565b6003810154610100900460ff166114c757505061160e565b600381015462010000900460ff166115355760405162461bcd60e51b815260206004820152602b60248201527f566f74657220686173206e6f7420617574686f72697a6564206f776e6572207460448201526a6f207265616420766f746560a81b6064820152608401610656565b6000611544826002015461170c565b905060015b60048160ff161161160957600061155f8261180b565b9050600061156d848361183f565b9050600061157b60016117c0565b9050600061158960006117c0565b9050600061159884848461188f565b905060006115b5600b8860ff166005811061053057610530611dc8565b905060006115c3828461192c565b905060006115d0826117fb565b905080600b8a60ff16600581106115e9576115e9611dc8565b01819055505050505050505050808061160190611e5a565b915050611549565b505050505b8061161881611e79565b915050611438565b50506010805461ff001916610100179055565b6000606463d2c135e560045b60f81b846040518363ffffffff1660e01b81526004016116759291906001600160f81b0319929092168252602082015260400190565b6020604051808303816000875af1158015611694573d6000803e3d6000fd5b505050506040513d601f19601f820116820180604052508101906108859190612036565b60006064630cfed561600461163f565b80516020820151604051630e4f36e160e41b815260009260649263e4f36e109261167592600160f81b92909160040161204f565b6000606463c50c9c02600161163f565b6000606463d2c135e5600161163f565b60408051606083901b6bffffffffffffffffffffffff1916602082015281516014818303018152603482019283905263078de1cd60e31b909252600091606491633c6f0e689161177691600160f81b91889160380161204f565b6020604051808303816000875af1158015611795573d6000803e3d6000fd5b505050506040513d601f19601f820116820180604052508101906117b99190612036565b9392505050565b6040516306cdb05b60e51b8152600160fa1b600482015267ffffffffffffffff8216602482015260009060649063d9b60b6090604401611675565b6000606463c50c9c02600461163f565b6040516306cdb05b60e51b8152600160f81b600482015260ff8216602482015260009060649063d9b60b6090604401611675565b60006064637c12a1eb6118546001808561193d565b6040516001600160e01b031960e084901b1681526001600160e81b031990911660048201526024810186905260448101859052606401611776565b600060646320cc408d6118a46004808561193d565b6040516001600160e01b031960e084901b1681526001600160e81b031990911660048201526024810187905260448101869052606481018590526084016020604051808303816000875af1158015611900573d6000803e3d6000fd5b505050506040513d601f19601f820116820180604052508101906119249190612036565b949350505050565b60006064638c5d0150611854600480855b600081600281111561195157611951612020565b60ff16600884600481111561196857611968612020565b61ffff16901b61ffff16601086600481111561198657611986612020565b62ffffff16901b171760e81b949350505050565b60405180608001604052806004905b6119da6040518060600160405280600060ff16815260200160608152602001600067ffffffffffffffff1681525090565b8152602001906001900390816119a95790505090565b60405180608001604052806004905b6040805180820190915260008152606060208201528152602001906001900390816119ff5790505090565b6020808252825182820181905260009190848201906040850190845b81811015611a6b5783516001600160a01b031683529284019291840191600101611a46565b50909695505050505050565b6000815180845260005b81811015611a9d57602081850181015186830182015201611a81565b506000602082860101526020601f19601f83011685010191505092915050565b602080825260009060a0830183820185845b6004811015611b2c57601f198785030183528151606060ff8251168652868201518188880152611b0182880182611a77565b60409384015167ffffffffffffffff1697909301969096525093509184019190840190600101611acf565b50919695505050505050565b634e487b7160e01b600052604160045260246000fd5b600067ffffffffffffffff80841115611b6957611b69611b38565b604051601f8501601f19908116603f01168101908282118183101715611b9157611b91611b38565b81604052809350858152868686011115611baa57600080fd5b858560208301376000602087830101525050509392505050565b80356001600160a01b0381168114611bdb57600080fd5b919050565b60008060408385031215611bf357600080fd5b823567ffffffffffffffff811115611c0a57600080fd5b8301601f81018513611c1b57600080fd5b611c2a85823560208401611b4e565b925050611c3960208401611bc4565b90509250929050565b600060208284031215611c5457600080fd5b813560ff811681146117b957600080fd5b6020815260006117b96020830184611a77565b602080825260009060a0830183820185845b6004811015611b2c57868403601f190183528151805160ff1685528501516040868601819052611cbc81870183611a77565b955050509184019190840190600101611c8a565b600060208284031215611ce257600080fd5b813567ffffffffffffffff811115611cf957600080fd5b8201604081850312156117b957600080fd5b600060208284031215611d1d57600080fd5b6117b982611bc4565b604081526000611d396040830185611a77565b905082151560208301529392505050565b60c081526000611d5d60c0830189611a77565b6001600160a01b03979097166020830152506040810194909452911515606084015215156080830152151560a090910152919050565b600060208284031215611da557600080fd5b5035919050565b60ff831681526040602082015260006119246040830184611a77565b634e487b7160e01b600052603260045260246000fd5b600181811c90821680611df257607f821691505b602082108103611e1257634e487b7160e01b600052602260045260246000fd5b50919050565b604081526000611e2b6040830185611a77565b905067ffffffffffffffff831660208301529392505050565b634e487b7160e01b600052601160045260246000fd5b600060ff821660ff8103611e7057611e70611e44565b60010192915050565b600060018201611e8b57611e8b611e44565b5060010190565b601f821115611edc57600081815260208120601f850160051c81016020861015611eb95750805b601f850160051c820191505b81811015611ed857828155600101611ec5565b5050505b505050565b815167ffffffffffffffff811115611efb57611efb611b38565b611f0f81611f098454611dde565b84611e92565b602080601f831160018114611f445760008415611f2c5750858301515b600019600386901b1c1916600185901b178555611ed8565b600085815260208120601f198616915b82811015611f7357888601518255948401946001909101908401611f54565b5085821015611f915787850151600019600388901b60f8161c191681555b5050505050600190811b01905550565b600060408236031215611fb357600080fd5b6040516040810167ffffffffffffffff8282108183111715611fd757611fd7611b38565b81604052843583526020850135915080821115611ff357600080fd5b50830136601f82011261200557600080fd5b61201436823560208401611b4e565b60208301525092915050565b634e487b7160e01b600052602160045260246000fd5b60006020828403121561204857600080fd5b5051919050565b60ff60f81b841681528260208201526060604082015260006120746060830184611a77565b9594505050505056fea26469706673582212203c0ed698d3cb3c6f7ac09ce1a29ded47a74bca5290bc327d0f3b6f67f3d8a47f64736f6c63430008130033",
  "linkReferences": {},
  "deployedLinkReferences": {}
}