{
  "_format": "hh-sol-artifact-1",
  "contractName": "COTIVotingContract",
  "sourceName": "contracts/COTIVotingContract.sol",
  "abi": [
    {
      "inputs": [],
      "stateMutability": "nonpayable",
      "type": "constructor"
    },
    {
      "inputs": [],
      "name": "CannotCloseElectionWithoutVoters",
      "type": "error"
    },
    {
      "inputs": [],
      "name": "ElectionClosed",
      "type": "error"
    },
    {
      "inputs": [],
      "name": "ElectionStillOpen",
      "type": "error"
    },
    {
      "inputs": [],
      "name": "EmptyVoterName",
      "type": "error"
    },
    {
      "inputs": [
        {
          "internalType": "uint8",
          "name": "option",
          "type": "uint8"
        }
      ],
      "name": "InvalidVoteOption",
      "type": "error"
    },
    {
      "inputs": [],
      "name": "InvalidVoterAddress",
      "type": "error"
    },
    {
      "inputs": [
        {
          "internalType": "address",
          "name": "voter",
          "type": "address"
        }
      ],
      "name": "InvalidVoterState",
      "type": "error"
    },
    {
      "inputs": [],
      "name": "NoVotersRegistered",
      "type": "error"
    },
    {
      "inputs": [],
      "name": "NoVotesCast",
      "type": "error"
    },
    {
      "inputs": [],
      "name": "OnlyOwnerAllowed",
      "type": "error"
    },
    {
      "inputs": [
        {
          "internalType": "address",
          "name": "voter",
          "type": "address"
        }
      ],
      "name": "VoterAlreadyRegistered",
      "type": "error"
    },
    {
      "inputs": [
        {
          "internalType": "address",
          "name": "voter",
          "type": "address"
        }
      ],
      "name": "VoterHasNotVoted",
      "type": "error"
    },
    {
      "inputs": [
        {
          "internalType": "address",
          "name": "voter",
          "type": "address"
        }
      ],
      "name": "VoterNotRegistered",
      "type": "error"
    },
    {
      "anonymous": false,
      "inputs": [
        {
          "indexed": false,
          "internalType": "bool",
          "name": "isOpen",
          "type": "bool"
        }
      ],
      "name": "ElectionStateChanged",
      "type": "event"
    },
    {
      "anonymous": false,
      "inputs": [
        {
          "indexed": true,
          "internalType": "address",
          "name": "voter",
          "type": "address"
        }
      ],
      "name": "OwnerAuthorized",
      "type": "event"
    },
    {
      "anonymous": false,
      "inputs": [
        {
          "indexed": true,
          "internalType": "uint8",
          "name": "optionId",
          "type": "uint8"
        },
        {
          "indexed": false,
          "internalType": "string",
          "name": "optionLabel",
          "type": "string"
        },
        {
          "indexed": false,
          "internalType": "uint64",
          "name": "voteCount",
          "type": "uint64"
        }
      ],
      "name": "ResultsDecrypted",
      "type": "event"
    },
    {
      "anonymous": false,
      "inputs": [
        {
          "indexed": true,
          "internalType": "address",
          "name": "voter",
          "type": "address"
        }
      ],
      "name": "VoteCast",
      "type": "event"
    },
    {
      "anonymous": false,
      "inputs": [
        {
          "indexed": true,
          "internalType": "address",
          "name": "voter",
          "type": "address"
        }
      ],
      "name": "VoteChanged",
      "type": "event"
    },
    {
      "anonymous": false,
      "inputs": [
        {
          "indexed": true,
          "internalType": "address",
          "name": "voterId",
          "type": "address"
        },
        {
          "indexed": false,
          "internalType": "string",
          "name": "name",
          "type": "string"
        }
      ],
      "name": "VoterRegistered",
      "type": "event"
    },
    {
      "inputs": [
        {
          "internalType": "string",
          "name": "name",
          "type": "string"
        },
        {
          "internalType": "address",
          "name": "voterId",
          "type": "address"
        }
      ],
      "name": "addVoter",
      "outputs": [],
      "stateMutability": "nonpayable",
      "type": "function"
    },
    {
      "inputs": [],
      "name": "aggregateVotes",
      "outputs": [],
      "stateMutability": "nonpayable",
      "type": "function"
    },
    {
      "inputs": [],
      "name": "authorizeOwnerToReadVote",
      "outputs": [],
      "stateMutability": "nonpayable",
      "type": "function"
    },
    {
      "inputs": [
        {
          "components": [
            {
              "internalType": "ctUint8",
              "name": "ciphertext",
              "type": "uint256"
            },
            {
              "internalType": "bytes",
              "name": "signature",
              "type": "bytes"
            }
          ],
          "internalType": "struct itUint8",
          "name": "encryptedVote",
          "type": "tuple"
        }
      ],
      "name": "castVote",
      "outputs": [],
      "stateMutability": "nonpayable",
      "type": "function"
    },
    {
      "inputs": [
        {
          "components": [
            {
              "internalType": "ctUint8",
              "name": "ciphertext",
              "type": "uint256"
            },
            {
              "internalType": "bytes",
              "name": "signature",
              "type": "bytes"
            }
          ],
          "internalType": "struct itUint8",
          "name": "newEncryptedVote",
          "type": "tuple"
        }
      ],
      "name": "changeVote",
      "outputs": [],
      "stateMutability": "nonpayable",
      "type": "function"
    },
    {
      "inputs": [],
      "name": "electionOpened",
      "outputs": [
        {
          "internalType": "bool",
          "name": "",
          "type": "bool"
        }
      ],
      "stateMutability": "view",
      "type": "function"
    },
    {
      "inputs": [],
      "name": "getElectionStatus",
      "outputs": [
        {
          "internalType": "bool",
          "name": "isOpen",
          "type": "bool"
        },
        {
          "internalType": "uint256",
          "name": "voterCount",
          "type": "uint256"
        },
        {
          "internalType": "address",
          "name": "electionOwner",
          "type": "address"
        }
      ],
      "stateMutability": "view",
      "type": "function"
    },
    {
      "inputs": [],
      "name": "getMyVote",
      "outputs": [
        {
          "internalType": "ctUint8",
          "name": "",
          "type": "uint256"
        }
      ],
      "stateMutability": "nonpayable",
      "type": "function"
    },
    {
      "inputs": [],
      "name": "getRegisteredVoterCount",
      "outputs": [
        {
          "internalType": "uint256",
          "name": "",
          "type": "uint256"
        }
      ],
      "stateMutability": "view",
      "type": "function"
    },
    {
      "inputs": [],
      "name": "getResults",
      "outputs": [
        {
          "components": [
            {
              "internalType": "uint8",
              "name": "optionId",
              "type": "uint8"
            },
            {
              "internalType": "string",
              "name": "optionLabel",
              "type": "string"
            },
            {
              "internalType": "uint64",
              "name": "voteCount",
              "type": "uint64"
            }
          ],
          "internalType": "struct COTIVotingContract.VoteResult[4]",
          "name": "",
          "type": "tuple[4]"
        }
      ],
      "stateMutability": "nonpayable",
      "type": "function"
    },
    {
      "inputs": [],
      "name": "getResultsForOwner",
      "outputs": [
        {
          "internalType": "ctUint64[4]",
          "name": "",
          "type": "uint256[4]"
        }
      ],
      "stateMutability": "nonpayable",
      "type": "function"
    },
    {
      "inputs": [],
      "name": "getVoterAddresses",
      "outputs": [
        {
          "internalType": "address[]",
          "name": "",
          "type": "address[]"
        }
      ],
      "stateMutability": "view",
      "type": "function"
    },
    {
      "inputs": [
        {
          "internalType": "address",
          "name": "voterId",
          "type": "address"
        }
      ],
      "name": "getVoterInfo",
      "outputs": [
        {
          "internalType": "string",
          "name": "name",
          "type": "string"
        },
        {
          "internalType": "bool",
          "name": "isRegistered",
          "type": "bool"
        }
      ],
      "stateMutability": "view",
      "type": "function"
    },
    {
      "inputs": [],
      "name": "getVotingOptions",
      "outputs": [
        {
          "components": [
            {
              "internalType": "uint8",
              "name": "id",
              "type": "uint8"
            },
            {
              "internalType": "string",
              "name": "label",
              "type": "string"
            }
          ],
          "internalType": "struct COTIVotingContract.VoteOption[4]",
          "name": "",
          "type": "tuple[4]"
        }
      ],
      "stateMutability": "view",
      "type": "function"
    },
    {
      "inputs": [],
      "name": "getVotingQuestion",
      "outputs": [
        {
          "internalType": "string",
          "name": "",
          "type": "string"
        }
      ],
      "stateMutability": "pure",
      "type": "function"
    },
    {
      "inputs": [
        {
          "internalType": "address",
          "name": "voterId",
          "type": "address"
        }
      ],
      "name": "isVoterRegistered",
      "outputs": [
        {
          "internalType": "bool",
          "name": "",
          "type": "bool"
        }
      ],
      "stateMutability": "view",
      "type": "function"
    },
    {
      "inputs": [],
      "name": "toggleElection",
      "outputs": [],
      "stateMutability": "nonpayable",
      "type": "function"
    },
    {
      "inputs": [
        {
          "internalType": "uint8",
          "name": "optionId",
          "type": "uint8"
        }
      ],
      "name": "validateVoteOption",
      "outputs": [
        {
          "internalType": "bool",
          "name": "",
          "type": "bool"
        }
      ],
      "stateMutability": "pure",
      "type": "function"
    },
    {
      "inputs": [],
      "name": "viewResults",
      "outputs": [
        {
          "components": [
            {
              "internalType": "uint8",
              "name": "optionId",
              "type": "uint8"
            },
            {
              "internalType": "string",
              "name": "optionLabel",
              "type": "string"
            },
            {
              "internalType": "uint64",
              "name": "voteCount",
              "type": "uint64"
            }
          ],
          "internalType": "struct COTIVotingContract.VoteResult[4]",
          "name": "",
          "type": "tuple[4]"
        }
      ],
      "stateMutability": "view",
      "type": "function"
    },
    {
      "inputs": [
        {
          "internalType": "uint256",
          "name": "",
          "type": "uint256"
        }
      ],
      "name": "voterAddresses",
      "outputs": [
        {
          "internalType": "address",
          "name": "",
          "type": "address"
        }
      ],
      "stateMutability": "view",
      "type": "function"
    },
    {
      "inputs": [
        {
          "internalType": "address",
          "name": "",
          "type": "address"
        }
      ],
      "name": "voters",
      "outputs": [
        {
          "internalType": "string",
          "name": "name",
          "type": "string"
        },
        {
          "internalType": "address",
          "name": "voterId",
          "type": "address"
        },
        {
          "internalType": "ctUint8",
          "name": "encryptedVote",
          "type": "uint256"
        },
        {
          "internalType": "bool",
          "name": "isRegistered",
          "type": "bool"
        },
        {
          "internalType": "bool",
          "name": "hasVoted",
          "type": "bool"
        },
        {
          "internalType": "bool",
          "name": "hasAuthorizedOwner",
          "type": "bool"
        }
      ],
      "stateMutability": "view",
      "type": "function"
    },
    {
      "inputs": [
        {
          "internalType": "uint256",
          "name": "",
          "type": "uint256"
        }
      ],
      "name": "votingOptions",
      "outputs": [
        {
          "internalType": "uint8",
          "name": "id",
          "type": "uint8"
        },
        {
          "internalType": "string",
          "name": "label",
          "type": "string"
        }
      ],
      "stateMutability": "view",
      "type": "function"
    }
  ],
  "bytecode": "0x60806040523480156200001157600080fd5b50600a805460ff19610100330281166001600160a81b03199092169190911760019081179092556040805180820182528381528151808301909252600982526843686f636f6c61746560b81b602080840191909152810182905280516000805460ff9092169190941617835592906200008b90826200024b565b505060408051808201825260028082528251808401909352600983526852617370626572727960b81b60208085019190915282018390528151815460ff191660ff90911617815590925090600390620000e590826200024b565b505060408051808201825260038152815180830190925260088252670a6c2dcc8eed2c6d60c31b602080840191909152810182905280516004805460ff191660ff909216919091178155909250906005906200014290826200024b565b505060408051808201825260048152815180830190925260058252644d616e676f60d81b602080840191909152810182905280516006805460ff191660ff909216919091178155909250906007906200019c90826200024b565b5090505062000317565b634e487b7160e01b600052604160045260246000fd5b600181811c90821680620001d157607f821691505b602082108103620001f257634e487b7160e01b600052602260045260246000fd5b50919050565b601f8211156200024657600081815260208120601f850160051c81016020861015620002215750805b601f850160051c820191505b8181101562000242578281556001016200022d565b5050505b505050565b81516001600160401b03811115620002675762000267620001a6565b6200027f81620002788454620001bc565b84620001f8565b602080601f831160018114620002b757600084156200029e5750858301515b600019600386901b1c1916600185901b17855562000242565b600085815260208120601f198616915b82811015620002e857888601518255948401946001909101908401620002c7565b5085821015620003075787850151600019600388901b60f8161c191681555b5050505050600190811b01905550565b6121af80620003276000396000f3fe608060405234801561001057600080fd5b50600436106101425760003560e01c8063a3ec138d116100b8578063d70903221161007c578063d7090322146102dd578063dd0e2373146102e5578063dff67f6b14610310578063eb2119db14610331578063f587767b14610360578063fa0f82a21461037557600080fd5b8063a3ec138d14610293578063a980ff0e146102b8578063d4ff9193146102c0578063d55ab095146102cd578063d60debb9146102d557600080fd5b806364fc75e01161010a57806364fc75e0146101e057806368cdfda51461020357806383859cf714610242578063857a5ed0146102575780638cb647d31461026a5780639ed1f2551461027257600080fd5b80630a16e30b14610147578063122902a6146101655780632b8c2504146101a45780634717f97c146101b65780635607395b146101cb575b600080fd5b61014f610388565b60405161015c9190611b21565b60405180910390f35b600a5460095460ff82169161010090046001600160a01b031660408051931515845260208401929092526001600160a01b03169082015260600161015c565b6009545b60405190815260200161015c565b6101be6103ea565b60405161015c9190611bb4565b6101de6101d9366004611cd7565b610582565b005b6101f36101ee366004611d39565b61080b565b604051901515815260200161015c565b604080518082018252601b81527f5768617420697320796f7572206661766f7269746520666f6f643f00000000006020820152905161015c9190611d5c565b61024a61082b565b60405161015c9190611d6f565b6101de610265366004611dc7565b610913565b6101a8610a3b565b610285610280366004611e02565b610adb565b60405161015c929190611e1d565b6102a66102a1366004611e02565b610c05565b60405161015c96959493929190611e41565b6101de610cd6565b600a546101f39060ff1681565b6101be610d04565b6101de610f08565b6101de610fef565b6102f86102f3366004611e8a565b6110b7565b6040516001600160a01b03909116815260200161015c565b61032361031e366004611e8a565b6110e1565b60405161015c929190611ea3565b6101f361033f366004611e02565b6001600160a01b031660009081526008602052604090206003015460ff1690565b610368611191565b60405161015c9190611ebf565b6101de610383366004611dc7565b6112be565b606060098054806020026020016040519081016040528092919081815260200182805480156103e057602002820191906000526020600020905b81546001600160a01b031681526001909101906020018083116103c2575b5050505050905090565b6103f2611a73565b600a5460ff1615610416576040516373cbb3a360e11b815260040160405180910390fd5b6009546000036104395760405163a30aca8f60e01b815260040160405180910390fd5b6104416113d3565b610449611a73565b60005b60048160ff16101561057c576000808260ff166004811061046f5761046f611ef0565b600202015460ff9081169150600090819084166004811061049257610492611ef0565b6002020160010180546104a490611f06565b80601f01602080910402602001604051908101604052809291908181526020018280546104d090611f06565b801561051d5780601f106104f25761010080835404028352916020019161051d565b820191906000526020600020905b81548152906001019060200180831161050057829003601f168201915b5050505050905060405180606001604052808360ff168152602001828152602001600067ffffffffffffffff16815250848460ff166004811061056257610562611ef0565b60200201525081905061057481611f56565b91505061044c565b50905090565b600a5461010090046001600160a01b031633146105b257604051630e2f7eff60e31b815260040160405180910390fd5b6001600160a01b03811660009081526008602052604090206003015460ff16156105ff5760405163c501dbfd60e01b81526001600160a01b03821660048201526024015b60405180910390fd5b6001600160a01b038116610626576040516320798b3f60e21b815260040160405180910390fd5b815160000361064857604051635c55fdb360e01b815260040160405180910390fd5b816000805b825181101561069d5782818151811061066857610668611ef0565b6020910101516001600160f81b031916600160fd1b1461068b576001915061069d565b8061069581611f75565b91505061064d565b50806106bc57604051635c55fdb360e01b815260040160405180910390fd5b6040805160c0810182528581526001600160a01b03851660208083018290526000838501819052600160608501526080840181905260a0840181905291825260089052918220815181906107109082611fdd565b506020820151600180830180546001600160a01b039384166001600160a01b0319918216179091556040808601516002860155606086015160039095018054608088015160a0909801511515620100000262ff0000199815156101000261ff00199815159890981661ffff19909216919091179690961796909616949094179094556009805491820181556000527f6e1540171b6c0c960b71a7020d9f60077f6af931a8bbf590da0223dacf75c7af018054918816919093168117909255517fffeb7702be7dcd8fee170d954b70afb9a7c78f7f5cff232d037e7b9d8243356a906107fc908890611d5c565b60405180910390a25050505050565b600060018260ff1610158015610825575060048260ff1611155b92915050565b610833611ac9565b60408051608081019091526000600481835b8282101561090a5760408051808201909152600283028501805460ff16825260018101805460208401919061087990611f06565b80601f01602080910402602001604051908101604052809291908181526020018280546108a590611f06565b80156108f25780601f106108c7576101008083540402835291602001916108f2565b820191906000526020600020905b8154815290600101906020018083116108d557829003601f168201915b50505050508152505081526020019060010190610845565b50505050905090565b3360009081526008602052604090206003015460ff1661094857604051639d8ab59d60e01b81523360048201526024016105f6565b600a5460ff1661096b5760405163a549b9ad60e01b815260040160405180910390fd5b600061097e6109798361209d565b611700565b9050600061098b82611777565b33600090815260086020526040902060028101829055600301805461ff001916610100179081905590915062010000900460ff16610a0b5733600081815260086020526040808220600301805462ff0000191662010000179055517f088504cc656f0bf9393d86c793d2e71f5fdbb2736d7bc12cfd960306ac1ceddf9190a25b60405133907fb87a61d78bd15221c59b983f6ef032fbde0631e66bfe18d1421fe5a73c16741d90600090a2505050565b3360009081526008602052604081206003015460ff16610a7057604051639d8ab59d60e01b81523360048201526024016105f6565b33600090815260086020526040902060030154610100900460ff16610aaa5760405163f2f1626360e01b81523360048201526024016105f6565b33600090815260086020526040812060020154610ac6906117b9565b90506000610ad482336117c9565b9250505090565b606060008060086000856001600160a01b03166001600160a01b031681526020019081526020016000206040518060c0016040529081600082018054610b2090611f06565b80601f0160208091040260200160405190810160405280929190818152602001828054610b4c90611f06565b8015610b995780601f10610b6e57610100808354040283529160200191610b99565b820191906000526020600020905b815481529060010190602001808311610b7c57829003601f168201915b505050918352505060018201546001600160a01b031660208201526002820154604082015260039091015460ff808216151560608085019190915261010083048216151560808501526201000090920416151560a0909201919091528151910151909590945092505050565b600860205260009081526040902080548190610c2090611f06565b80601f0160208091040260200160405190810160405280929190818152602001828054610c4c90611f06565b8015610c995780601f10610c6e57610100808354040283529160200191610c99565b820191906000526020600020905b815481529060010190602001808311610c7c57829003601f168201915b5050506001840154600285015460039095015493946001600160a01b039091169390925060ff808216925061010082048116916201000090041686565b600a5460ff1615610cfa576040516373cbb3a360e11b815260040160405180910390fd5b610d026113d3565b565b610d0c611a73565b600a5460ff1615610d30576040516373cbb3a360e11b815260040160405180910390fd5b600954600003610d535760405163a30aca8f60e01b815260040160405180910390fd5b60105460ff16610dcd576040805162461bcd60e51b81526020600482015260248101919091527f566f7465732068617665206e6f74206265656e2061676772656761746564207960448201527f65742e2043616c6c20616767726567617465566f74657328292066697273742e60648201526084016105f6565b610dd5611a73565b60005b60048160ff16101561057c576000808260ff1660048110610dfb57610dfb611ef0565b600202015460ff90811691506000908190841660048110610e1e57610e1e611ef0565b600202016001018054610e3090611f06565b80601f0160208091040260200160405190810160405280929190818152602001828054610e5c90611f06565b8015610ea95780601f10610e7e57610100808354040283529160200191610ea9565b820191906000526020600020905b815481529060010190602001808311610e8c57829003601f168201915b5050505050905060405180606001604052808360ff168152602001828152602001600067ffffffffffffffff16815250848460ff1660048110610eee57610eee611ef0565b602002015250819050610f0081611f56565b915050610dd8565b3360009081526008602052604090206003015460ff16610f3d57604051639d8ab59d60e01b81523360048201526024016105f6565b3360009081526008602052604090206003015462010000900460ff1615610fa65760405162461bcd60e51b815260206004820152601860248201527f4f776e657220616c726561647920617574686f72697a6564000000000000000060448201526064016105f6565b33600081815260086020526040808220600301805462ff0000191662010000179055517f088504cc656f0bf9393d86c793d2e71f5fdbb2736d7bc12cfd960306ac1ceddf9190a2565b600a5461010090046001600160a01b0316331461101f57604051630e2f7eff60e31b815260040160405180910390fd5b600a5460ff1680156110315750600954155b1561105257604051600162fbea0960e01b0319815260040160405180910390fd5b600a805460ff19811660ff918216159081179092551615611079576010805461ffff191690555b600a5460405160ff909116151581527f58d99f1d0dfdad6caf2b8823434b82787ace21d736432d69520958d8428c59989060200160405180910390a1565b600981815481106110c757600080fd5b6000918252602090912001546001600160a01b0316905081565b600081600481106110f157600080fd5b60020201805460018201805460ff90921693509061110e90611f06565b80601f016020809104026020016040519081016040528092919081815260200182805461113a90611f06565b80156111875780601f1061115c57610100808354040283529160200191611187565b820191906000526020600020905b81548152906001019060200180831161116a57829003601f168201915b5050505050905082565b611199611b03565b600a5460ff16156111bd576040516373cbb3a360e11b815260040160405180910390fd5b600a5461010090046001600160a01b031633146111ed57604051630e2f7eff60e31b815260040160405180910390fd5b6009546000036112105760405163a30aca8f60e01b815260040160405180910390fd5b6112186113d3565b611220611b03565b60005b60048160ff16101561057c576000808260ff166004811061124657611246611ef0565b600202015460105460ff918216925016156112ab57600061127d600b8360ff166005811061127657611276611ef0565b0154611879565b9050600061128b8233611889565b905080858560ff16600481106112a3576112a3611ef0565b602002015250505b50806112b681611f56565b915050611223565b3360009081526008602052604090206003015460ff166112f357604051639d8ab59d60e01b81523360048201526024016105f6565b600a5460ff166113165760405163a549b9ad60e01b815260040160405180910390fd5b60006113246109798361209d565b9050600061133182611777565b336000908152600860205260409020600281018290556003015490915062010000900460ff166113a35733600081815260086020526040808220600301805462ff0000191662010000179055517f088504cc656f0bf9393d86c793d2e71f5fdbb2736d7bc12cfd960306ac1ceddf9190a25b60405133907fbcc6791025780c5d3b88b0f64e6493105037fe9c3d97a963f14d4d3479e75a6b90600090a2505050565b6009546000036113f65760405163a30aca8f60e01b815260040160405180910390fd5b601054610100900460ff161561140857565b6000805b60095481101561147e57600860006009838154811061142d5761142d611ef0565b60009182526020808320909101546001600160a01b0316835282019290925260400190206003015460ff610100909104161561146c576001915061147e565b8061147681611f75565b91505061140c565b508061149d5760405163354ba2d560e01b815260040160405180910390fd5b60015b60048160ff16116114f45760006114b76000611899565b905060006114c4826118d4565b905080600b8460ff16600581106114dd576114dd611ef0565b0155508190506114ec81611f56565b9150506114a0565b506010805460ff1916600117905560005b6009548110156116ed5760006009828154811061152457611524611ef0565b60009182526020808320909101546001600160a01b03168083526008909152604090912060038101549192509060ff1661157c5760405163448c8c0560e01b81526001600160a01b03831660048201526024016105f6565b6003810154610100900460ff166115945750506116db565b600381015462010000900460ff166116025760405162461bcd60e51b815260206004820152602b60248201527f566f74657220686173206e6f7420617574686f72697a6564206f776e6572207460448201526a6f207265616420766f746560a81b60648201526084016105f6565b600061161182600201546117b9565b905060015b60048160ff16116116d657600061162c826118e4565b9050600061163a8483611918565b905060006116486001611899565b905060006116566000611899565b90506000611665848484611968565b90506000611682600b8860ff166005811061127657611276611ef0565b905060006116908284611a05565b9050600061169d826118d4565b905080600b8a60ff16600581106116b6576116b6611ef0565b0181905550505050505050505080806116ce90611f56565b915050611616565b505050505b806116e581611f75565b915050611505565b50506010805461ff001916610100179055565b80516020820151604051630e4f36e160e41b815260009260649263e4f36e109261173492600160f81b929091600401612132565b6020604051808303816000875af1158015611753573d6000803e3d6000fd5b505050506040513d601f19601f820116820180604052508101906108259190612160565b6000606463c50c9c0260015b60f81b846040518363ffffffff1660e01b81526004016117349291906001600160f81b0319929092168252602082015260400190565b6000606463d2c135e56001611783565b60006064633c6f0e6860015b60f81b8585604051602001611802919060609190911b6bffffffffffffffffffffffff1916815260140190565b6040516020818303038152906040526040518463ffffffff1660e01b815260040161182f93929190612132565b6020604051808303816000875af115801561184e573d6000803e3d6000fd5b505050506040513d601f19601f820116820180604052508101906118729190612160565b9392505050565b6000606463d2c135e56004611783565b60006064633c6f0e6860046117d5565b6040516306cdb05b60e51b8152600160fa1b600482015267ffffffffffffffff8216602482015260009060649063d9b60b6090604401611734565b6000606463c50c9c026004611783565b6040516306cdb05b60e51b8152600160f81b600482015260ff8216602482015260009060649063d9b60b6090604401611734565b60006064637c12a1eb61192d60018085611a16565b6040516001600160e01b031960e084901b1681526001600160e81b03199091166004820152602481018690526044810185905260640161182f565b600060646320cc408d61197d60048085611a16565b6040516001600160e01b031960e084901b1681526001600160e81b031990911660048201526024810187905260448101869052606481018590526084016020604051808303816000875af11580156119d9573d6000803e3d6000fd5b505050506040513d601f19601f820116820180604052508101906119fd9190612160565b949350505050565b60006064638c5d015061192d600480855b6000816002811115611a2a57611a2a61211c565b60ff166008846004811115611a4157611a4161211c565b61ffff16901b61ffff166010866004811115611a5f57611a5f61211c565b62ffffff16901b171760e81b949350505050565b60405180608001604052806004905b611ab36040518060600160405280600060ff16815260200160608152602001600067ffffffffffffffff1681525090565b815260200190600190039081611a825790505090565b60405180608001604052806004905b604080518082019091526000815260606020820152815260200190600190039081611ad85790505090565b60405180608001604052806004906020820280368337509192915050565b6020808252825182820181905260009190848201906040850190845b81811015611b625783516001600160a01b031683529284019291840191600101611b3d565b50909695505050505050565b6000815180845260005b81811015611b9457602081850181015186830182015201611b78565b506000602082860101526020601f19601f83011685010191505092915050565b602080825260009060a0830183820185845b6004811015611c2357601f198785030183528151606060ff8251168652868201518188880152611bf882880182611b6e565b60409384015167ffffffffffffffff1697909301969096525093509184019190840190600101611bc6565b50919695505050505050565b634e487b7160e01b600052604160045260246000fd5b600067ffffffffffffffff80841115611c6057611c60611c2f565b604051601f8501601f19908116603f01168101908282118183101715611c8857611c88611c2f565b81604052809350858152868686011115611ca157600080fd5b858560208301376000602087830101525050509392505050565b80356001600160a01b0381168114611cd257600080fd5b919050565b60008060408385031215611cea57600080fd5b823567ffffffffffffffff811115611d0157600080fd5b8301601f81018513611d1257600080fd5b611d2185823560208401611c45565b925050611d3060208401611cbb565b90509250929050565b600060208284031215611d4b57600080fd5b813560ff8116811461187257600080fd5b6020815260006118726020830184611b6e565b602080825260009060a0830183820185845b6004811015611c2357868403601f190183528151805160ff1685528501516040868601819052611db381870183611b6e565b955050509184019190840190600101611d81565b600060208284031215611dd957600080fd5b813567ffffffffffffffff811115611df057600080fd5b82016040818503121561187257600080fd5b600060208284031215611e1457600080fd5b61187282611cbb565b604081526000611e306040830185611b6e565b905082151560208301529392505050565b60c081526000611e5460c0830189611b6e565b6001600160a01b03979097166020830152506040810194909452911515606084015215156080830152151560a090910152919050565b600060208284031215611e9c57600080fd5b5035919050565b60ff831681526040602082015260006119fd6040830184611b6e565b60808101818360005b6004811015611ee7578151835260209283019290910190600101611ec8565b50505092915050565b634e487b7160e01b600052603260045260246000fd5b600181811c90821680611f1a57607f821691505b602082108103611f3a57634e487b7160e01b600052602260045260246000fd5b50919050565b634e487b7160e01b600052601160045260246000fd5b600060ff821660ff8103611f6c57611f6c611f40565b60010192915050565b600060018201611f8757611f87611f40565b5060010190565b601f821115611fd857600081815260208120601f850160051c81016020861015611fb55750805b601f850160051c820191505b81811015611fd457828155600101611fc1565b5050505b505050565b815167ffffffffffffffff811115611ff757611ff7611c2f565b61200b816120058454611f06565b84611f8e565b602080601f83116001811461204057600084156120285750858301515b600019600386901b1c1916600185901b178555611fd4565b600085815260208120601f198616915b8281101561206f57888601518255948401946001909101908401612050565b508582101561208d5787850151600019600388901b60f8161c191681555b5050505050600190811b01905550565b6000604082360312156120af57600080fd5b6040516040810167ffffffffffffffff82821081831117156120d3576120d3611c2f565b816040528435835260208501359150808211156120ef57600080fd5b50830136601f82011261210157600080fd5b61211036823560208401611c45565b60208301525092915050565b634e487b7160e01b600052602160045260246000fd5b60ff60f81b841681528260208201526060604082015260006121576060830184611b6e565b95945050505050565b60006020828403121561217257600080fd5b505191905056fea264697066735822122089b96bd1f7a8e9557529dc74307f161a3ecf49741128f4a051e87ea0e423fe9264736f6c63430008130033",
  "linkReferences": {},
  "deployedLinkReferences": {}
}