{
  "_format": "hh-sol-artifact-1",
  "contractName": "Counter",
  "sourceName": "contracts/Counter.sol",
  "abi": [
    {
      "inputs": [],
      "stateMutability": "nonpayable",
      "type": "constructor"
    },
    {
      "inputs": [
        {
          "components": [
            {
              "internalType": "ctUint64",
              "name": "ciphertext",
              "type": "uint256"
            },
            {
              "internalType": "bytes",
              "name": "signature",
              "type": "bytes"
            }
          ],
          "internalType": "struct itUint64",
          "name": "value",
          "type": "tuple"
        }
      ],
      "name": "add",
      "outputs": [],
      "stateMutability": "nonpayable",
      "type": "function"
    },
    {
      "inputs": [],
      "name": "sum",
      "outputs": [
        {
          "internalType": "ctUint64",
          "name": "",
          "type": "uint256"
        }
      ],
      "stateMutability": "view",
      "type": "function"
    }
  ],
  "bytecode": "0x608060405234801561001057600080fd5b50600061001c8161003a565b905061002881336100b9565b8051600055602001516001555061023a565b6040516306cdb05b60e51b8152600160fa1b60048201526001600160401b038216602482015260009060649063d9b60b60906044015b6020604051808303816000875af115801561008f573d6000803e3d6000fd5b505050506040513d601f19601f820116820180604052508101906100b391906101be565b92915050565b60408051808201909152600080825260208201526100d6836100ed565b81526100e2838361011f565b602082015292915050565b6040516362864e0160e11b8152600160fa1b60048201526024810182905260009060649063c50c9c0290604401610070565b60408051606083901b6001600160601b031916602082015281516014818303018152603482019283905263078de1cd60e31b909252600091606491633c6f0e689161017491600160fa1b9188916038016101d7565b6020604051808303816000875af1158015610193573d6000803e3d6000fd5b505050506040513d601f19601f820116820180604052508101906101b791906101be565b9392505050565b6000602082840312156101d057600080fd5b5051919050565b60ff60f81b8416815260006020848184015260606040840152835180606085015260005b81811015610217578581018301518582016080015282016101fb565b506000608082860101526080601f19601f83011685010192505050949350505050565b61051a806102496000396000f3fe608060405234801561001057600080fd5b50600436106100365760003560e01c8063853255cc1461003b578063e454c7f214610050575b600080fd5b60015460405190815260200160405180910390f35b61006361005e366004610302565b610065565b005b6000610078610073836103ad565b6100b2565b90506000610089600080015461012f565b90506100958183610171565b90506100a18133610207565b805160005560200151600155505050565b80516020820151604051630e4f36e160e41b815260009260649263e4f36e10926100e692600160fa1b929091600401610468565b6020604051808303816000875af1158015610105573d6000803e3d6000fd5b505050506040513d601f19601f8201168201806040525081019061012991906104cb565b92915050565b6000606463d2c135e560045b60f81b846040518363ffffffff1660e01b81526004016100e69291906001600160f81b0319929092168252602082015260400190565b60006064638c5d01506101866004808561023b565b6040516001600160e01b031960e084901b1681526001600160e81b0319909116600482015260248101869052604481018590526064015b6020604051808303816000875af11580156101dc573d6000803e3d6000fd5b505050506040513d601f19601f8201168201806040525081019061020091906104cb565b9392505050565b604080518082019091526000808252602082015261022483610298565b815261023083836102a8565b602082015292915050565b600081600281111561024f5761024f610452565b60ff16600884600481111561026657610266610452565b61ffff16901b61ffff16601086600481111561028457610284610452565b62ffffff16901b171760e81b949350505050565b6000606463c50c9c02600461013b565b60408051606083901b6bffffffffffffffffffffffff1916602082015281516014818303018152603482019283905263078de1cd60e31b909252600091606491633c6f0e68916101bd91600160fa1b918891603801610468565b60006020828403121561031457600080fd5b813567ffffffffffffffff81111561032b57600080fd5b82016040818503121561020057600080fd5b634e487b7160e01b600052604160045260246000fd5b6040805190810167ffffffffffffffff811182821017156103765761037661033d565b60405290565b604051601f8201601f1916810167ffffffffffffffff811182821017156103a5576103a561033d565b604052919050565b6000604082360312156103bf57600080fd5b6103c7610353565b8235815260208084013567ffffffffffffffff808211156103e757600080fd5b9085019036601f8301126103fa57600080fd5b81358181111561040c5761040c61033d565b61041e601f8201601f1916850161037c565b9150808252368482850101111561043457600080fd5b80848401858401376000908201840152918301919091525092915050565b634e487b7160e01b600052602160045260246000fd5b60ff60f81b8416815260006020848184015260606040840152835180606085015260005b818110156104a85785810183015185820160800152820161048c565b506000608082860101526080601f19601f83011685010192505050949350505050565b6000602082840312156104dd57600080fd5b505191905056fea26469706673582212209df366d98fa9fc6a360660629eb48c0d911e141c709617d4d9803ae991e8035164736f6c63430008130033",
  "linkReferences": {},
  "deployedLinkReferences": {}
}